:020000040000FA
:060000004AEF67F0120058
:06000800E1EF55F01200CB
:0600180084EF55F0120018
:10004000D9CFE6FFE1CFD9FF030EE126A2EC05F000
:1000500080849294C00E826E800E946EC80EE66EFE
:10006000F90EE66E010EE66E48EC66F0E552E552DA
:10007000E55200ECFEF066EC65F08CEC05F036EC39
:1000800057F0D08EF28EF28C010E08010B1502E0B3
:10009000010E01D0000EE8B08384E8A083948FD9CC
:1000A000E76E010EE7CFDBFFE8EC55F003DA016EF7
:1000B00001C0E6FFA3EC04F0E552E7CF01F0012414
:1000C000006E010EDBCFE7FF0050E726010EE7CF01
:1000D000DBFF010EDBCF03F0046A056A0350041056
:1000E000051007E0F00E006EC40E016E000E026EE9
:1000F00006D0DE0E006EC40E016E000E026E00C051
:10010000E6FF01C0E6FF02C0E6FF48EC66F0E552FC
:10011000E552E552D90EE66EF90EE66E010EE66E78
:1001200048EC66F0E552E552E552010EDBCF03F0F4
:10013000046A056A03500410051007E0FA0E006E09
:10014000CD0E016E000E026E06D0210E006EFA0E6C
:10015000016E010E026E00C0E6FF01C0E6FF02C0A4
:10016000E6FF48EC66F0E552E552E55270EC63F0CC
:100170000101B66B8650100B01E0010EE76E020E16
:10018000E7CFDBFF800EE66EE66AE66ABA0EE66E41
:100190000B0EE66E47EC5FF0006E050EE15E005060
:1001A000010EDB5004E10400010ED16E0400DF6A91
:1001B0000101B6A10ED00101B6830101B69181EC17
:1001C00065F03AC0D8F13BC0D9F13CC0DAF13DC08E
:1001D000DBF10101B6A359D081EC65F00101D851E2
:1001E0003A5C006E0101D9513B58016E0101DA51B0
:1001F0003C58026E0101DB513D58036E4B0E005C12
:100200004C0E0158000E0258000E03583EE3F29EB9
:10021000F29C0101B6A938D0280EE66EE66A000EFF
:10022000E66EF80EE66E010EE66EE80EE66E070E5E
:10023000E66EDAEC5EF0006E070EE15E005000093B
:1002400021E1BC0EE66EE66A280EE66EF80EE66E5A
:10025000010EE66E600EE66E050EE66EDAEC5EF0FE
:10026000016E070EE15E015000090CE1BC0EE66E66
:10027000C40EE66E000EE66E48EC66F0E552E552FE
:10028000E55202D055EC57F0FF008650100B01E00C
:10029000010E006E020EDB50005C5DE047EC57F093
:1002A0008650100B01E0010E006E020EDB50005C68
:1002B00051E0809481EC65F03AC0D8F13BC0D9F1AF
:1002C0003CC0DAF13DC0DBF181EC65F00101D851B1
:1002D0003A5C006E0101D9513B58016E0101DA51BF
:1002E0003C58026E0101DB513D58036E780E005CF4
:1002F0001E0E0158000E0258000E035802E20400C0
:10030000E3D7808481EC65F03AC0D8F13BC0D9F1E5
:100310003CC0DAF13DC0DBF181EC65F00101D85160
:100320003A5C006E0101D9513B58016E0101DA516E
:100330003C58026E0101DB513D58036E780E005CA3
:100340001E0E0158000E0258000E035802E204006F
:10035000E3D7A6D7FF007AEC63F0010E08010B1576
:1003600002E0010E01D0000EE8B08384E8A083947F
:100370000101B6B911D0010EDB500CE1DFCFE6FF71
:1003800034EC25F0E5522EEC27F0DFCFE6FFC6EC8B
:1003900027F0E55202EC2FF0DF2A000EDB94DB960B
:1003A000DB98DB9ADB9CDB9E03D7030EE15C02E269
:1003B000E16AE552E16EE552E7CFD9FF12007CEC2D
:1003C00006F00B0EE126DF6A060EDF5C16E2829075
:1003D000030EC96EC7A0FED7FA0EDF24C96EC7A0F0
:1003E000FED7C96AC7A0FED7D950010F0FEC06F09F
:1003F000C9CFEFFF8280DF2AE7D734EC06F0B1ECFB
:100400005EF0006E060EE15E0050000915E0010E80
:10041000DB5014E1010EDB50040810E1010EDB504B
:10042000A3080CE134EC06F0F9EC5EF0006E060E69
:10043000E15E005055EC57F0000E33D00701E85153
:1004400006E1040EE95D03E1A30EEA5D29E0AEECEE
:100450004DF0070E3AC0DBFF080E3BC0DBFF090E74
:100460003CC0DBFF0A0E3DC0DBFF0701E86B040E5A
:10047000E96FA30EEA6F50EC06F0100E75EC06F073
:10048000FDE100C0EBF750EC06F0080E75EC06F04D
:10049000FDE100C0ECF7070EDBCFEDF755EC57F0B0
:1004A000000E006E0B0EE15C02E2E16AE552E16EC5
:1004B0000050D6D3D9CFE6FFE1CFD9FF080EE12611
:1004C000070EDB6AA70EE66EC40EE66E000EE66E41
:1004D00048EC66F0E552E552E55282940000010EC8
:1004E000C96EC7A0FED7410EC96EC7A0FED78284D1
:1004F000000082940000050EC96EC7A0FED7C96A2D
:10050000C7A0FED7050EC9CFDBFF8284050EDB50E6
:1005100041080CE19E0EE66EC40EE66E000EE66E1D
:1005200048EC66F0E552E552E55210D0980EE66EC2
:10053000C40EE66E000EE66E48EC66F0E552E5523B
:10054000E552010EF36E070EF3CFDBFF020EDB6AFE
:10055000040EF36E020EDBCFF4FFF350F45C01E304
:10056000CED0570EE66E29EC66F0E5528294020E6C
:10057000C96EC7A0FED7C96AC7A0FED7C96AC7A0FF
:10058000FED7020EDB50080DF350110DF350C50FCE
:10059000E76E060EE7CFDBFFDE6ADD6ADECF00F036
:1005A000DDCF01F0026AD8900250000A06E6000E84
:1005B000005C800E0158000E025831E2060EDB503E
:1005C000C96EC7A0FED7DECF00F0DDCF01F001C0BD
:1005D00000F0016AA60E001A000E011A060EDBCF0B
:1005E000E7FF0050E71A060EE7CFDBFFDECF00F093
:1005F000DDCF01F0FF0E0016000E01165A0E001A94
:10060000000E011A060EDBCFE7FF0050E726060EAC
:10061000E7CFDBFFDF2A010E01E3DB2ABFD78284AD
:10062000560EE66E29EC66F0E5528294030EC96E12
:10063000C7A0FED7C96AC7A0FED7C96AC7A0FED7A0
:10064000020EDB50080DF350110DF350C50FE76E8D
:10065000060EE7CFDBFFDE6ADD6ADECF00F0DDCF1E
:1006600001F0026AD8900250000A06E6000E005C13
:10067000800E0158000E02583EE2C96AC7A0FED79C
:10068000030EC9CFDBFF030EDB50F36E060EDB500B
:10069000F35C05E0010EF36E070EF3CFDBFFDECF58
:1006A00000F0DDCF01F001C000F0016AA60E001AD3
:1006B000000E011A060EDBCFE7FF0050E71A060E08
:1006C000E7CFDBFFDECF00F0DDCF01F0FF0E00163D
:1006D000000E01165A0E001A000E011A060EDBCF8C
:1006E000E7FF0050E726060EE7CFDBFFDF2A010E0B
:1006F00001E3DB2AB2D78284020EDB2A29D7070E58
:10070000DB500CE0910EE66EC40EE66E000EE66E57
:1007100048EC66F0E552E552E5520BD07D0EE66EF0
:10072000C40EE66E000EE66E48EC66F0E552E55249
:10073000E5528294020EC96EC7A0FED7C96AC7A04F
:10074000FED7C96AC7A0FED7DE6ADD6ADECF00F039
:10075000DDCF01F0026AD8900250000A06E6000ED2
:10076000005C800E0158000E025806E2C96ADF2ABA
:10077000010E01E3DB2AEAD7C7A0FED78284070E69
:10078000DB500BE1760EE66EC40EE66E000EE66EF2
:1007900048EC66F0E552E552E552070EDB5000D01A
:1007A000006E080EE15C02E2E16AE552E16E005083
:1007B000E552E7CFD9FF1200F1D904E0E742E79E06
:1007C000E806FCE181DADBCFE6FF77DAEF50E552AD
:1007D000E714006E030EE15C02E2E16AE552E16EAD
:1007E00000503ED2DBD904E0E742E79EE806FCE198
:1007F0006BDA63DA020EDB50EF12030EE15C02E209
:10080000E16AE552E16E2CD2C9D904E0E742E79EE5
:10081000E806FCE159DADB1E50DA020EDB50EF1677
:10082000030EE15C02E2E16AE552E16E19D264DA9C
:10083000FE0EDB5002E04F0E01D0780E0DDA10D222
:100840005BDA040EE126DF6A0A0EDF5C75E2010E58
:10085000DB6A200EFAD917E2010EDB50D6D9020E60
:10086000DB6A2C0EF36E020EDBCFF4FFF350F45C68
:1008700007E2020EDFD9020EAAD9020EDB2AF1D757
:10088000010EDB2AE6D7900EE66E010EE66E10EC46
:1008900056F0E552E552010EDB6A200ED6D935E25C
:1008A000010EDB50816E808A809A97EC56F0D80E4C
:1008B000F66ECD0EF76E000EF86E0800F5500101D1
:1008C000B25D20E1D90EF66ECD0EF76E000EF86E19
:1008D0000800F550B35D16E1DA0EF66ECD0EF76E38
:1008E000000EF86E0800F550B45D0CE1DB0EF66EFC
:1008F000CD0EF76E000EF86E0800F550B55D02E102
:10090000C1D9EF2A010EDB2AC8D7030EDB6A010E1C
:10091000DB6A200E9AD90BE2B5D9EF5005E1010E42
:10092000F36E030EF3CFDBFF010EDB2AF2D7030ECB
:10093000DB5002E0DF2A88D7040EE15C02E2E16AC4
:10094000E552E16E8DD1D8D9220EE1260101AE6BC0
:10095000AF6BB06BB16B620EE66EC40EE66E000E4E
:100960004DD9809A809883908392480EE66EC40E8B
:10097000E66E000E43D9DF6A200EDF5C16E2D95026
:10098000020F4DD9EF6ADF5040D9010EDB6A2C0E01
:100990005CD902E2B6D9FBD7320EE66E07EC67F0FF
:1009A000E5522E0EB5D9DF2AE7D73D0EE66EC40E0E
:1009B000E66E000E23D9010EDF6EDF50200806E33D
:1009C0008DD93D50300F48D9DF2AF7D7320EE66E69
:1009D000C40EE66E000E12D9010EDF6EDF50200845
:1009E00006E37CD93950300F37D9DF2AF7D7270EE5
:1009F000E66EC40EE66E000E01D9936ADF6A200E21
:100A0000DF5C0AE2DF5001D984A203D0010EE66E5A
:100A100001D0E66A5FD9F3D71C0EE66EC40EE66E0F
:100A2000000EECD8DF6A200EDF5C0EE2DF50816E34
:100A3000808A809A97EC56F084B003D0010EE66E5F
:100A400001D0E66A47D9EFD7110EE66EC40EE66E06
:100A5000000ED4D8DF6A200EDF5C11E2DF50D5D85B
:100A6000010EDB6A2C0EF1D802E24BD9FBD784B21F
:100A700003D0010EE66E01D0E66A2CD9ECD7060E43
:100A8000E66EC40EE66E000EB9D8DF6A200EDF5C9B
:100A90000CE2DF50816E808A809A84B003D0010E10
:100AA000E66E01D0E66A16D9F1D7FB0EE66EC30EEC
:100AB000E66E000EA3D8D950020FE66E000EDA20C3
:100AC000E66EBEDEE552E552DF6A200EDF5C12E222
:100AD000D950020FA4D8EF5008E0010EE66EA7DE51
:100AE000E552DFCFE6FF7EDE02D0E66AA0DEE55209
:100AF000DF2AEBD70101AE51AF11B011B11102E104
:100B0000010E01D0000E006E220EE15C02E2E16AED
:100B1000E552E16E0050A4D0956A836A93688168BB
:100B2000900E946E050E826E976A856A030E966E1D
:100B3000846A926A806A86889888200EC66E400E03
:100B4000C76E1200D9D8020EE126DE6ADD6A400EB9
:100B50009B6ED9CFE9FFDACFEAFFEE06000EED5A21
:100B6000EECF00F0EDCF01F000500110F2E1C26ACB
:100B70000F0EC16EC06A070EB46EF19E200EAC6EF1
:100B8000900EAB6E7E86AC847F6A590EAF6E020EFD
:100B9000E15C02E2E16AE552E16E62D0ADD8030E9B
:100BA000E126FE0EDB50F80BE842E842E842DF6E39
:100BB000FE0EDB50070BE76E010EE7CFDBFF800E6A
:100BC000006E010EDB5000C0E7FF070B1200DBCF09
:100BD00003F0046A056A00500324F36E01500420F8
:100BE000F46E02500520F86EF4CFF7FFF3CFF6FF56
:100BF0000800F550816E838283921200E66E48EC05
:100C000066F0E552E552E5521200816E808A809AC4
:100C1000400E816E80888088808880981200006EE7
:100C2000DACF01F0DF500F010024E96E000EDA2068
:100C3000EA6E1200DB50816E80888098F50E006E9F
:100C4000F90E016E010E026E1200F36E010EDBCF83
:100C5000F4FFF350F45C12005BD8200E88EF06F02E
:100C6000E552E7CFD9FF1200060EE66EE66AD950CC
:100C7000010FE66E000EDA20E66EE80EE66E070E55
:100C8000E66E1200010EDB50E76EFD0EDBCFE9FFD2
:100C9000FE0EDBCFEAFFE750E926000EEA22120043
:100CA000070EDBCF00F0080EDBCF01F0090EDBCF23
:100CB00002F00A0EDBCF03F01200DF50EA6AAE0F3B
:100CC000E96E010EEA221200E750E76E020EE7CF4E
:100CD000DBFF1200ACDDE552DF2A12000A0E006EC7
:100CE000426EDFCF3DF058EF67F0D890033202320A
:100CF00001320032E8061200D9CFE6FFE1CFD9FF7A
:100D00001200010E97DF010E62DF010EDB2A1200D6
:0A0D1000E66E29EC66F0E5521200D1
:060D1A000A0010CF0000EA
:100D2000DE010000050000000CCF0000E301000020
:100D300004000000E6CE00005C0100002600000078
:100D4000E4CE0000EF01000002000000DECE000053
:100D5000D801000006000000DCCE0000ED0100001C
:100D600002000000DACE0000EB01000002000000EB
:100D7000D2CE0000CA01000008000000D0CE000062
:100D8000E901000002000000CECE0000E7010000F3
:040D9000020000005D
:0C0D940017EC1CF0FE0EDB500101EB5DC3
:100DA00022E0FE0EEB5D0CE01C0EE66EE66A270EFE
:100DB000E66E0F0EE66EEB51C8EC21F047EC1EF02C
:100DC000FE0EDBCFEBF1DB50FE080DE01C0EE66EF5
:100DD000E66AFE0EDB50C8EC21F0270EE66E0F0E21
:100DE000E66E47EC1EF01CEF1CF00101EB51EC5DD0
:100DF00001E11200FE0EEC5D0CE0250EE66EE66AE7
:100E0000F9EC1FF0DAEC21F0EC5192EC21F052EC0D
:100E100021F0EBC1ECF1250EE66EE66A0101DAEC99
:100E200021F0EB5192EC21F0F9EC1FF052EF21F0A0
:100E300017EC1CF00D0EE1267E0EF36E090EF3CFBB
:100E4000DBFF0B0EF36E0A0EF3CFDBFF0B0EDB6A3C
:100E50000C0EDB6A3C0EE66EE66AE66A000EE66E93
:100E60000E0EE66E47EC5FF0006E050EE15E005080
:100E7000010EDB6ADF6A0FEC1DF001E388D055EC50
:100E80001EF0B3DF7CEC1BF0F62A000EF722F822EE
:100E90000800080EF5CFDBFF7CEC1BF0020EF626F7
:100EA000000EF722F8220900020EF5CFDBFF0A0040
:100EB000030EF5CFDBFF7CEC1BF0040EF626000ED4
:100EC000F722F8220900040EF5CFDBFF0A00050E19
:100ED000F5CFDBFF080EDB50020A16E0020A28E11C
:100EE000090EDBCF3CF00A0E69EC1CF0090F83EC15
:100EF00021F0090EDBCF00F00A0ED9EC1FF0200E16
:100F0000C3EC1FF016E2F5D70B0EDBCF3CF00C0E56
:100F100069EC1CF00B0F83EC21F00B0EDBCF00F023
:100F20000C0ED9EC1FF0400EC3EC1FF002E2F5D717
:100F3000FFD77CEC1BF00800F5CF26FF080EDBCFB7
:100F400042FF060EDBCF27FF070EDBCF28FF250E63
:100F50000F012727000E2823020EDB502725296FBB
:100F6000030EDB5028212A6F010E2927000E2A23A9
:100F7000040EDB5029252B6F050EDB502A212C6F28
:100F80000D0E3D6F3E971DEC14F0DF2A74D70D0E49
:100F9000E15C02E2E16AE552E16E1CEF1CF017EC45
:100FA0001CF0E652DF6A0FEC1DF001E38ED055EC29
:100FB0001EF00D0E0F013D5D01E085D016DFF70E2E
:100FC000DB500F01265D01E07ED0FA0EDB5010E110
:100FD000F80EDBCF12FFF90EDBCF13FF3E87040EB6
:100FE0003D6FF80EDBCF40FFF90EDBCF41FF69D03C
:100FF000000E005D040E015906E3880ED8800055EE
:10100000130E015503E2006B040E016F00CF12FFB7
:1010100001CF13FF002B000E0123F80EDBCF10FFD2
:10102000F90EDBCF11FFF2EC20F00F013E89FA0E32
:10103000DB50040A2AE0070A12E0020A02E0030A6F
:1010400040E183EC1EF0FA0EDB50020802E0000ED5
:1010500001D0010E2495E8B024853D6B32D0FB0E03
:10106000DBCF04F0FC0EDBCF05F0FD0EDB500424DB
:10107000026EFE0EDB500520F8EC1DF083EC1EF036
:1010800000EC20F0020E3D6F1CD0A9EC1CF0020E0B
:1010900030EC1CF0EECF04F0EFCF05F0A9EC1CF023
:1010A0000450EE24026E0550EE20F8EC1DF0E3EC47
:1010B00021F00F01050E3D6F010EE66E020E38ECB9
:1010C0001CF0DF5003D0DF2A6ED7FE0EE5521CEF76
:1010D0001CF017EC1CF0FE0EDB50FE0806E011ECD5
:1010E0001CF0070E0F013D5D02E0000E01D0010E65
:1010F0001CEF1CF01AEC22F078EC20F00F013D51AF
:10110000080A1EE0010A1CE0050A1AE0020A15E0BE
:10111000050A0FE00D0A09E0010A07E0020A14E0DF
:10112000040A0EE1CFEC51F00FD059EC22F0080E7A
:1011300005D059EC22F00C0E01D00D0E3D6F06D0FB
:10114000E66A140E38EC1CF01DEC14F01CEF1CF0D9
:101150001AEC22F04ADE0A0EE66EE66A61EC1EF038
:10116000430EE66E0F0EE66EF9EC5EF049EC1DF0F4
:1011700010CF4DFF11CF4EFF430E006E0F0E87ECC8
:1011800021F01CEF1CF01AEC22F02FDE0F010E51A3
:101190002D1902E10F512E1902E059EC21F01CEF3C
:1011A0001CF017EC1CF0E65211EC1CF03DCFDFFFF9
:1011B000070EDF5C06E00B0EDF5C03E0F36AF46A07
:1011C00021D00F012F512D5D30512E5910E3B0EC7D
:1011D0001CF00206000E035A2F512D5D046E2E5195
:1011E0003055056E8CEC21F087EC21F00BD02D51A1
:1011F0002F5D006E30512E55016E0006000E015A13
:101200007DEC20F0E5521CEF1CF017EC1CF0020EF8
:10121000E12693EC23F013EC21F002E1000E36D02E
:10122000EEEC22F004E1ED5002E17DEC1CF00F0148
:101230003F51010B09E1B6EC1EF0B0EC1CF0AAEC3A
:101240001EF002E3F3EC22F0010EE66EE66AE66EB3
:1012500007EC20F0A2EC1DF04BEC1CF00F012D2B45
:10126000000E2E2329512D5D2A512E5902E34EECFA
:101270001FF0EEEC22F005E1ED5003E17DEC1CF0F7
:1012800004D03EBB02D0F6EC1BF0010E006E020E45
:10129000E15C02E2E16AE552E16E00501CEF1CF0F5
:1012A000A8EC20F005E17DEC1CF0F36AF46A38D07C
:1012B000D1EC1EF01EEC22F024EC1CF003E2FA0E3E
:1012C00023EC22F00F013F51010B05E160EC22F00D
:1012D00002E3F3EC22F01AEC1EF00EE36BEC21F0CB
:1012E00036EC22F0C6EC20F0D950FC0F04EC21F0D3
:1012F000C6EC20F066EC22F0CFEC1FF036EC22F0CA
:10130000D1EC21F01EEC22F024EC1CF003E37DEC88
:101310001CF004D03EBB02D0F6EC1BF001EC1EF03A
:10132000060EE15C02E2E16AE552E16E1CEF1CF0A0
:10133000A8EC20F005E17DEC1CF0F36AF46A34D0EF
:101340000F013F51010B05E160EC22F002E3F3ECE9
:1013500022F0D1EC1EF06CEC22F003E2F90E23EC4B
:1013600022F01AEC1EF00EE36BEC21F072EC22F08E
:10137000DEEC1FF0D950FB0FF8EC22F0C6EC20F0A9
:1013800066EC22F0CFEC1FF072EC22F0D1EC21F0F1
:101390006CEC22F003E37DEC1CF004D03EBB02D0E9
:1013A000F6EC1BF001EC1EF0060EE15C02E2E16AD5
:1013B000E552E16E1CEF1CF017EC1CF0FC0EDBCFCD
:1013C00002F0FD0EDBCF03F0FCEC22F078EC22F013
:1013D000DBEC5FF0E552E552F3CF04F0F4CF05F01B
:1013E000F3CFE6FFF4CFE6FFFC0EDBCFE6FF2BECFE
:1013F0001CF056DF066E050EE15E0650E1EC1FF0B4
:10140000F324006E0350F42087EC21F01CEF1CF055
:1014100017EC1CF0D9EC1CF0E9EC5FF0E552E5525A
:10142000E5523BC006F03CC007F03BC0E6FF3CC0C5
:10143000E6FFD9EC1CF037EC23F07ADF086E060EDD
:10144000E15E0850F3CF03F0F4CF04F0056AD95001
:10145000FB0FF1EC1BF0EE50F324006EEE50F42085
:10146000016EEE500520026E00C03BF001C03CF062
:101470003D6E1CEF1CF07FEC22F00F0183EC1CF0A2
:101480000006000E015AA9EC1DF037EC23F089DEAE
:10149000E3EC1CF002E2E16AE552E16E1CEF1CF0A5
:1014A00017EC1CF05EEC21F0E5522AEC1DF0F35035
:1014B000F41006E011EC1CF078EC20F059EC21F06F
:1014C0001CEF1CF01AEC22F00F01D4EC1FF006E325
:1014D0003351315D006E3251345513D033512B5D91
:1014E000026E2C513455036E01EC23F02951315D0D
:1014F000046E32512A55056E02500424006E0350CA
:10150000052087EC21F01CEF1CF017EC1CF0020EFC
:10151000E1265EEC21F013EC21F002E1000E25D073
:1015200011EC1CF04FEC23F009E0010EE66EE66AC8
:1015300014EC1FF017EC1DF04BEC1CF00F01332BDB
:10154000000E342333512B5D34512C5902E282ECCE
:1015500020F0EEEC22F004E1ED5002E13F8504D0F2
:101560003EBB02D0F6EC1BF0010E006E020EE15CF9
:1015700002E2E16AE552E16E00501CEF1CF017EC4C
:101580001CF0040EE126020EDB6A030EDB6A5EEC41
:1015900021F013EC21F003E1F36AF46A77D011EC47
:1015A0001CF0FA0EDBCF00F0FB0ED5EC1EF008E2CB
:1015B00064EC1CF0FA0EEECFDBFFFB0EEDCFDBFF91
:1015C000FA0EDB500F0133250001006EFB0EDB50DD
:1015D0000F01342100011BEC1FF023E2335119EC01
:1015E00023F0345508EC21F0A9EC1DF04FEC23F06A
:1015F0000EE0020EDBCFE6FF030EDBCFE6FF3DEC95
:1016000022F028EC1CF0D950FC0F04EC21F028EC5F
:101610001CF0D950FA0FF1EC1BF09FEC1CF082EC9F
:1016200020F04FEC23F004E051EC1CF03DEC22F0F4
:101630001FEC1FF03C500F0133273D50342328ECA2
:101640001CF0D950FA0F04EC21F0DECF02F0DDCF10
:1016500003F0FA0EDB50025C006EFB0EDB50035809
:10166000016EFA0EDBCF04F0FB0E15EC20F002E366
:101670003F8504D03EBB02D0F6EC1BF0FA0EDBCF68
:1016800000F0FB0EDBCF01F07DEC20F0040EE15CFE
:1016900002E2E16AE552E16E1CEF1CF07FEC22F001
:1016A0000F01295119EC23F02A55016EA9EC1DF008
:1016B0005EEC21F0E3EC1CF002E2E16AE552E16E3F
:1016C0001CEF1CF017EC1CF0300EE126D950FA0F7D
:1016D000CDEC20F003E1F36AF46A8CD111EC1CF03C
:1016E0005EEC21F0E552F80EDB50F35C006EF90E73
:1016F000DB50F458016EA9EC1DF028EC1CF0DCEC7A
:101700001EF001E26ED1D950F60FCDEC20F015E0BD
:1017100028EC1CF0F60EDBCF02F0F70E24EC1CF0E8
:101720000CE2F60EDBCF3CF0F70EDBCF3DF0020E05
:101730003CC0DBFF030E3DC0DBFFF80EDB500F01AA
:101740003325006EF90EDB503421016E19EC20F0C8
:1017500020EC20F006EC23F006E28BEC1DF019ECF7
:1017600021F09FEC1CF0060E23EC22F0DB502B5DE9
:10177000006E070EDB502C590001C0EC1EF0F80E75
:10178000DBCF3CF0F90EEAEC21F01FEC1FF0080E65
:101790003CC0DBFF090E3DC0DBFFFC0EDBCF3CF0A5
:1017A000FD0E7BEC1FF01AEC1DF001E3DB2A0D0EA1
:1017B000EFCFDBFF0F0EDB6AF50EDB5009E0AEEC7E
:1017C0001EF006E30D0EDB507A0802E391EC1DF0EB
:1017D000200EF36E0E0EF3CFDBFFDBCF00F0040E16
:1017E000DBCF01F0050E27EC20F006E2040EDB5003
:1017F000E76E0E0EE7CFDBFF0E0EDBCF00F0020E22
:10180000DBCF01F0030E27EC20F006E2020EDB50E6
:10181000E76E0E0EE7CFDBFF0E0EDBCFE6FFE66ACC
:1018200042CFE6FFCFEC1FF0010EE66ED950100F4D
:1018300066EC1EF04BEC1CF00E0EDB50DE26000EAC
:10184000DD22C9EC1FF0040F53EC23F0D950040F34
:101850002EEC23F008E129CFDEFF2ACFDDFF040EB6
:10186000DB68050EDB68F50EDB5063E00C0EDB6A0F
:1018700084EC1FF001E3ABD0D950100F016E0C0EB9
:10188000DB500F01012428EC22F0EFCF00F0610EB5
:10189000005C13E3D950100F036EDACF04F00C0E86
:1018A000DB50032428EC22F0EF507A0806E3E00E28
:1018B000026EE4EC1EF00250EF26E4EC1EF0EF5056
:1018C000F36E0D0EDB50F35C1CE1FA0EDB06DBCF92
:1018D00000F0FB0E01E2DB06DBCF01F0005001104F
:1018E00048E01AEC1DF001E3DB2A8DEC1FF0AEECB2
:1018F0001EF01CE30D0EDB507A0818E391EC1DF08E
:1019000015D029EC1EF012E02CEC21F001E3DB2ACB
:101910000D0EEFCFDBFFAEEC1EF006E30D0EDB503D
:101920007A0802E391EC1DF00F0EDB6A0C0EDB2A45
:101930009FD70C0EDB6A84EC1FF049E2D950100FE0
:10194000006E0C0EDB500F01002428EC22F0EF504B
:10195000F36E0D0EDB50F35C2BE1FA0EDB06DBCFF2
:1019600000F0FB0E01E2DB06DBCF01F000500110BE
:1019700018E1060EDBCF04F0070EDBCF05F0080EF2
:10198000DB50045C026E090EDB500558036E0C0E32
:1019900032EC22F0000E032008EC21F07DEC20F068
:1019A00029D01AEC1DF001E3DB2A8DEC1FF00CD0DE
:1019B00029EC1EF009E02CEC21F001E3DB2A0D0EEE
:1019C000EFCFDBFF0F0EDB6A0C0EDB2AB4D7C9ECBE
:1019D0001FF0020F53EC23F028EC1CF0DCEC1EF09F
:1019E00003E2F368F46806D0C9EC1FF0060F83EC3D
:1019F00021F0EED6300EE15C02E2E16AE552E16EE2
:101A00001CEF1CF017EC1CF0F80EDBCFE6FFF90E14
:101A1000DBCFE6FF51EC1CF0FC0EDBCFE6FF010E46
:101A2000E66EE66A07EC20F037EC23F04BDE006E42
:101A30000A0EE15E00501CEF1CF017EC1CF00A0EC1
:101A4000E126DF6A0FEC1DF001E301D255EC1EF038
:101A5000030EDB6A010EDB6A020EDB6A0F013F51E7
:101A6000020B03E13F51040B10E022EC3EF00009B1
:101A70000CE0100EF3EC1DF00F013F51040B01E0E0
:101A8000010EE76E010EE7CFDBFF0F013EAB11D079
:101A90008BEC65F00F013A50395D006E3B503A59BE
:101AA000016EE83402E258EC1FF003E3100EF3EC91
:101AB0001DF03EAD09D0ECEC1EF002E258EC1FF038
:101AC00003E3100EF3EC1DF00B0E3D5D0BE1ECECAF
:101AD0001EF002E258EC1FF005E3110EF3EC1DF0CE
:101AE0000C0E3D6F040E3D5D47E153EC1FF09CEC86
:101AF0001DF042E281EC23F03FE00EEC21F044ECDB
:101B00001DF04051001832E1415101182FE1F5EC70
:101B100006F00A0EE66EE66A61EC1BF096EC1FF02A
:101B200061EC1EF047EC1EF010EC22F0EECF10FF3F
:101B3000EDCF11FF61EC1BF00C0E30EC1CF0EECF82
:101B40000AFFEECF0BFFEECF0CFFEFCF0DFF0F0123
:101B50000A2B0B230C230D234EEC1DF0120EF3EC7D
:101B60001DF0060E3D6FA6EC1BF006D0040EDB2A1E
:101B7000050EBDE3DB2ABBD7030EDB5009E0010EE7
:101B8000DB5002E0000E01D0010EE66EE9EC1FF022
:101B90000F013EB931D0070E3D5D01E056D15BEC3F
:101BA0001DF001E052D10F013E51070B06081AE16A
:101BB0003E51080B01E0010EE76E030EE7CFDBFF9D
:101BC000DFCFE6FF7AEC08F0E552DFCFE6FF7AECF4
:101BD00008F0E552030EDB5001E037D10F010E0E85
:101BE0003D6F33D1F5EC06F0020EE66E100E38ECC8
:101BF0001CF058EC1CF029D15BEC1DF001E025D164
:101C0000F5EC06F00F013D510C0A01E1E0D0060AA7
:101C100001E1D8D0030A01E1E4D0010A01E1CDD00D
:101C20000F0A01E1C1D00C0A01E1BED00D0A01E1A9
:101C3000B2D0030A01E1ADD0060A5DE0010A4CE032
:101C4000030A23E0010A01E0D4D0CAEC51F00009F4
:101C500001E1CFD00F01010E3D6F24A50BD0E66E40
:101C600018CFE6FF19CFE6FF1ACFE6FFF6EC51F0EA
:101C7000E55207D0E66E18CFE6FF19CFE6FFDCECA1
:101C800051F0E552E552E552B4D0D950060F66EC5A
:101C90001EF019EC52F0E552E552000901E1A9D01D
:101CA000CFEC51F0000914E0060EDBCF18FF070E51
:101CB000DBCF19FF080EDBCF1AFF090EDBCF1BFFAE
:101CC0000F01020E3D6F4EEC1DF000EC20F091D0A4
:101CD00058EC1CF03D6B8DD08BEC65F03AC039FFB1
:101CE0003BC03AFF61EC1EF0D4EC59F0E552E552EE
:101CF0000F01030E4CD01C0EE66E0F0EE66E61EC6B
:101D00001EF056EC5AF0A4EC1CF0000939E139CF72
:101D100004F03ACF05F0066A076A39CFE6FF3ACFFA
:101D2000E6FF06C0E6FF07C0E6FF8BEC65F0E55274
:101D3000E7CF07F0E552E7CF06F0E552E7CF05F031
:101D4000E552E7CF04F004503A5C006E05503B5872
:101D5000016E06503C58026E07503D58036E00500D
:101D60000F01025D015003590250045903500559F7
:101D700040E2060E255D02E22EEC20F0020E07D0B6
:101D8000020EF3EC1DF0010EDB6A0F01050E3D6F34
:101D900030D0020E20D0020E255D02E2120E1BD0C2
:101DA0003EB71FD0020E06D0050E255D0EE3080ECD
:101DB0003D6F110EF36E030E1AD0050E255D11E274
:101DC000110E09D0050E255D0CE2100E04D0050E93
:101DD000255D07E2110EF3EC1DF0DE52010EDD6E03
:101DE00008D0140EF3EC1DF0010EF36E020EF3CFCB
:101DF000DBFF030EDB5024E0010EDB501DE00F0182
:101E00002EEC20F0CBEC1EF0016E026A036A01AEEC
:101E100002D0026803683BEC1DF0BFEC21F008E241
:101E20002DEC22F001AE02D0026803683BEC1DF0FD
:101E300087EC20F0E66A02D0010EE66EE9EC1FF0B6
:101E4000020EDB5002E01DEC14F0DF2AFBD553EC50
:101E50001FF09CEC1DF028E281EC23F025E061EC02
:101E60001BF0120E30EC1CF0BBEC1EF0FCEC22F070
:101E70008BEC65F0E1EC1FF03A5C006E03503B58D0
:101E8000016EC90ED8800054010E015407E2A6EC81
:101E90001BF0040EDB06050E01E2DB06040EDB2A56
:101EA000050ED7E3DB2AD5D70A0EE15C02E2E16A30
:101EB000E552E16E1CEF1CF017EC1CF0250EE1263C
:101EC00075EC1BF067EC1FF0170EEECFDBFFA9ECF3
:101ED0001CF0180EEECFDBFF190EEECFDBFF1A0E53
:101EE000EECFDBFF1B0EEECFDBFF1C0EDB6A060E18
:101EF000F36E1D0EF3CFDBFF35EC20F01E0E3CC061
:101F0000DBFF1F0E3DC0DBFF1E0EDBCFE6FF1F0E0B
:101F1000DBCFE6FF6BEC1EF01E0EF3CFDBFF1F0ED8
:101F20003CEC20F0140F9CEC21F0200E00C0DBFFF5
:101F3000210E01C0DBFF85EC22F01EEC40F0E552E3
:101F4000E552220EF3CFDBFF230EF4CFDBFF200E92
:101F5000DBCF00F0210EDBCF01F0220EDB500018AA
:101F600049E1230EDB50011845E1000E47EC20F05B
:101F7000140E43EC20F084EC41F0A4EC1CF066EC71
:101F800021F0DFEC13F0E552E552D9500C0F34ECA0
:101F90001CF042EC1EF0006E016A140E005E000E92
:101FA000015A240E00C0DBFFDB50026E036A35ECE1
:101FB00020F002503C5C006E03503D58016E140E40
:101FC000005E000E015AF90E00C0DBFFFA0E01C0E0
:101FD000DBFF2BEC1CF066EC21F0B2DAA4EC1CF079
:101FE000000908E085EC22F066EC21F05CEC14F0CE
:101FF000A4EC1CF03BEC3EF0010E006E250EE15C03
:1020000002E2E16AE552E16E00501CEF1CF017ECB1
:102010001CF02A0EE126F5EC06F0FE0EDBA004D043
:102020000F013F87FE0EDB900F013E9B3E9D3E9FC2
:102030003F933F953F9122EC3EF00009FCE0FE0EFD
:10204000DB50060B05E0260EDB6A270EDB6ADED0CE
:102050000F010E512D1910E10F512E190DE1260E11
:10206000DB6A270EDB6A3FA7D1D01451151101E1BD
:10207000CDD0FE0EDB80CAD02D510E5D2E510F59F2
:1020800035E20E512D5D006E2E510F55BEEC1DF048
:1020900003E3CBEC1EF004D0B0EC1CF0C3EC1EF05C
:1020A00021EC21F002E290EC1EF05AEC23F002E267
:1020B0009FEC1FF03FA713D0B0EC1DF0280EDB50B3
:1020C000001803E1290EDB50011809E01DEC21F096
:1020D000EE5002E1080EED1802E0FE0EDB8026EC69
:1020E0001FF078EC21F043EC22F090D00E51295DE6
:1020F000006E2A510F55F1EC1FF0240EDB502D25F8
:102100000001026E250EDB500F012E210001036E2F
:102110000F012751025C006E28510358BEEC1DF0E0
:1021200003E3CBEC1EF004D0B0EC1CF0C3EC1EF0CB
:1021300021EC21F002E290EC1EF05AEC23F002E2D6
:102140009FEC1FF03FA713D0B0EC1DF0280EDB5022
:10215000001803E1290EDB50011809E01DEC21F005
:10216000EE5002E1080EED1802E0FE0EDB80240EB8
:10217000DBCF00F0250EDBCF01F0260EDBCF02F027
:10218000270E24EC1CF004E24EEC1EF04EEC20F086
:102190002DEC1FF078EC21F0260EDBCF02F0270E9D
:1021A000DBCF03F0240EDB50025C006E250EDB500B
:1021B0000358F1EC1FF0D950240F2EEC23F01DE052
:1021C0002DEC1FF042CFE6FF27CFE6FF28CFE6FF3A
:1021D000E66A0F010E51295D006E2A510F55016EFE
:1021E000026A036AC30E0026050E0122000E0222B7
:1021F000032249EC1FF08CEC22F043EC22F0295131
:102200000E5D2A510F5902E393EC22F01DEC21F0F0
:10221000EE50ED1004E1FE0EDB50030B16E01DEC5A
:1022200021F0EE50ED1002E0FE0EDB86FD0EDBA08D
:1022300008D00F01256B970E026F980E036F046B89
:10224000056B0AEC1EF03E892FD0FD0EDBA21FD0DD
:102250003E0EE96E0F0EEA6EEF50070BE82AF36EA2
:10226000E850070BF36EF46EF80EEF14F310EF6EF8
:10227000F4500F010607000E075B085B095B010EB7
:10228000F36E260EF3CFDBFF270EDB6A0DD00F01B6
:102290003EA90AD0DBB006D02507D8900533043319
:1022A000033302330AEC1EF0020E12CFDBFF030EE3
:1022B00013CFDBFF040E10CFDBFF050E11CFDBFFCA
:1022C000060E06CFDBFF070E07CFDBFF080E08CF99
:1022D000DBFF090E09CFDBFF0A0E0ACFDBFF0B0E77
:1022E0000BCFDBFF0C0E0CCFDBFF0D0E0DCFDBFF9A
:1022F0000F0EDB9CDB9E0E0EDB90DB92DB94DB96FD
:10230000FE0EDB50E76E0F0EE7CFDBFF140EDB6A2D
:10231000150EDB6AB0EC1DF00001F7EC1EF0FE0EAE
:10232000DBA215D0DBB808D00A0EDB6A0B0EDB6A25
:102330000C0EDB6A0D0EDB6A24A303D061EC23F0E4
:1023400006D0062B000E0723082309232483FE0E44
:10235000DBA00BD024A103D061EC23F006D0062B28
:10236000000E0723082309232481D4EC1FF003E384
:102370006EEC1DF002D071EC1FF0100E00C0DBFF00
:10238000110E01C0DBFF63EC3EF02AEC1DF0400EA5
:10239000005E55EC20F0B6EC1EF00001800E01143A
:1023A00002E0DE6ADD6A100EDBCF00F0110ED5EC24
:1023B0001EF008E264EC1CF0100EEECFDBFF110EF5
:1023C000EDCFDBFFD950020F66EC1EF0F8D9E552D5
:1023D000E5521DEC21F0140EEE26000EED220E0E3D
:1023E000DB88DB9ADB8CDB9EFE0EDBA22DD01DECA6
:1023F00021F0040EEE26000EED22020EF36E160EF4
:10240000F3CFDBFF040EF36E170EF3CFDBFF070EE7
:10241000F36E180EF3CFDBFFFC0E8CEC20F0010EF8
:10242000006ED9500E0F34EC1CF09AEC22F0002410
:102430000F0BF36EF46EF346F346F346F3460F0EBE
:10244000EF14F310EF6EF4501A0EEEC7DBFF1B0E05
:10245000EFC7DBFF1C0EF0C7DBFF1D0EF1C7DBFF74
:102460001E0E18CFDBFF1F0E19CFDBFF200E1ACF79
:10247000DBFF210E1BCFDBFF220EDB6A060EF36EA5
:10248000230EF3CFDBFF4EEC1EF04EEC20F02DECD4
:102490001FF06BEC1EF0240EF3CFDBFF250E3CEC9F
:1024A00020F01A0F9CEC21F0120E00C0DBFF130E7F
:1024B00001C0DBFF9B0E9BEC20F05DEC1FF026ECD7
:1024C0001FF0060EE66E61EC1EF0C3EC5DF0006ED0
:1024D000050EE15E0050140EE66EE66AD950020F5A
:1024E00066EC1EF0C4EC21F0FE0EDBA209D0040E57
:1024F000E66EE66AD950160F66EC1EF0C4EC21F0C9
:10250000AF0E9BEC20F091EC20F026EC1FF01EECBF
:1025100040F0E55249EC23F0BF0E9BEC20F05DEC5F
:102520001FF0020E43EC20F0C4EC21F0B8EC3FF0B9
:102530002A0EE15C02E2E16AE552E16E1CEF1CF05A
:1025400085EC23F0A3EC20F0EE50ED1001E1A5D0D6
:10255000DE52FE0EDD6EA9EC1CF0020E30EC1CF01B
:10256000EECF06F0EFCF07F0A9EC1CF00650EE24FA
:10257000046E0750EE20056E75EC1BF00450EE243F
:10258000026E0550EE20036EA3EC20F00250EE1810
:10259000006E0350EE18016EA9EC1DF0DF6A0FEC1F
:1025A0001DF047E255EC1EF00D0E0F013D5D3FE0C2
:1025B000040E3D5D0CE157EC23F00050401937E16B
:1025C0000150411934E1010EDFCFDBFF30D040CFA5
:1025D00000F041CF01F0020EDB50001828E1030E9D
:1025E000DB50011824E1F5EC06F057EC23F00F0165
:1025F000125100181CE11351011819E175EC1BF080
:10260000BBEC1EF01051021812E1115103180FE13A
:10261000A9EC1CF0EE5018190AE1EE50191907E167
:10262000EE501A1904E1EE501B1901E128E0DF2AEF
:10263000B6D7010EDB50FE0824E0010EDBCFE6FF2B
:10264000CAEC06F0E552F5EC06F0010EDB50FE0890
:1026500018E0020EDBCF40FF030EDBCF41FFE3ECBF
:1026600021F075EC1BF0EECF10FFEDCF11FFA3ECC6
:1026700020F0EECF12FFEDCF13FF96EC20F0010E0D
:1026800094D075EC1BF00D0E30EC1CF0EF50020BEB
:1026900004E00E013851391102E0000E86D053ECEF
:1026A0001FF09CEC1DF036E281EC23F033E00EECE1
:1026B00021F044EC1DF0A3EC20F0BBEC1EF0025026
:1026C000001822E1035001181FE110EC22F044EC45
:1026D0001DF075EC1BF0BBEC1EF00250001814E16D
:1026E0000350011811E1A9EC1CF0F3EC21F0EE50BD
:1026F0000001001808E1EE50011805E1EE50021843
:1027000002E1EE50031842E0040EDB2A050EC9E395
:10271000DB2AC7D7DF6A0FEC1DF046E255EC1EF04E
:102720000F013EA73FD0F5EC06F057EC23F0005028
:102730000F01121937E10150131934E1DFEC1DF0DC
:1027400061EC1BF096EC1FF047EC1EF075EC1BF0F3
:1027500044EC1DF010EC22F000C0EEFF01C0EDFFD4
:1027600075EC1BF0040E30EC1CF0F3EC21F00C0EB9
:1027700030EC1CF000C0EEFF27EC23F057EC23F008
:102780000EEC21F000C0EEFF01C0EDFF8BEC65F018
:102790003BC001F061EC1BF0120E0BEC23F001C00A
:1027A000EDFF03D0DF2AB7D7000E006E060EE15C06
:1027B00002E2E16AE552E16E00501CEF1CF017ECFA
:1027C0001CF075EC1BF021EC23F075EC1BF062ECB7
:1027D0001FF0A3EC20F021EC23F0A3EC20F08AEC16
:1027E00023F0040ED2EC20F0040E0BEC23F027ECC7
:1027F00023F075EC1BF0080ED2EC20F0080E0BEC69
:1028000023F027EC23F061EC21F021EC23F061ECC4
:1028100021F08AEC23F0100E98EC23F0100E30EC2F
:102820001CF08AEC23F0120E98EC23F0120E30EC20
:102830001CF062EC1FF01CEF1CF0F5EC06F012CF60
:1028400040FF13CF41FF4EEC1FF027CF2FFF28CFC3
:1028500030FF29CF31FF2ACF32FF82EC20F00F0169
:102860003E51080B02E0040E01D00D0E3D6F3E916B
:102870003E933E953E993E9B3E9D3E9F3F913F93AA
:102880003F953F973F89249124932497249996EC70
:1028900020F0ADEC60F0F3CF06FFF4CF07FFADEC16
:1028A00060F0F3CF08FFF4CF09FF0F01226923691D
:1028B000010E146F156B120017EC1CF01A0EE126B6
:1028C00075EC1BF00D0E30EC1CF00E0EEFCFDBFFA5
:1028D00075EC1BF0080E30EC1CF00F0EEECFDBFF9A
:1028E000100EEECFDBFF110EEECFDBFF120EEECFA0
:1028F000DBFF75EC1BF0040E30EC1CF0130EEECF7A
:10290000DBFF67EC1FF00F013E913E933E953EB911
:1029100002D058EC1CF03D51050A23E0010A10E0FA
:1029200034EC1FF0170E3CC0DBFF180E3DC0DBFF80
:102930000E0EDBA04AD0170EDB2A180E46E344D059
:102940000E0EDBB48EEF19F0DBA805D002EC1DF003
:10295000E66A040EB0D2DBA28EEF19F0CDEC1DF0CA
:1029600029D00E0EDBB495EF19F0DBA810D0A1EC46
:1029700022F001E026D1EE50071901E022D1EE50FD
:10298000081901E01ED1EE50091901E01AD10E0E0E
:10299000DBA295EF19F0CDEC1DF068EC23F00E0EE4
:1029A000DBA808D059EC21F00F01070E3D6F3E99CE
:1029B00095EF19F0010EE66E120E38EC1CF00F01C7
:1029C000060E3D6F95EF19F0DB2A0E0EDBA205D047
:1029D000170EDB2A180E01E3DB2AD4EC1FF003E309
:1029E0006EEC1DF002D071EC1FF00C0E00C0DBFF8E
:1029F0000D0E01C0DBFFD950130F34EC1CF00A514F
:102A0000EE5C006E0B51EE58016E0C51EE58026EEA
:102A10000D51EE58036E19EC20F0080E02C0DBFFDA
:102A2000090E03C0DBFF060EDBCF3CF0070E7BEC8C
:102A30001FF0190EDB6AA8EC22F001E177D0D95023
:102A40000C0F2EEC23F001E190D06EEC23F002E6A7
:102A5000A8EC1FF009E3F1EC1CF0E8AE02D003345F
:102A600002D0B1EC1FF03DE3170EDBCF00F0180EE3
:102A70008EEC23F019EC21F0BAEC1FF00334000EB9
:102A8000031806E6D880000E0054000EC3EC1FF0B9
:102A90002BE20C0EDBCF08F00D0EDBCF09F0170E8A
:102AA000DB50085C046E180EDB500958056E066A90
:102AB000076A05AE02D00668076819EC21F0030E1C
:102AC000EBCFF3FF0750F318E8AE02D0F33408D091
:102AD000EE50045CEE500558EE500658EE50075884
:102AE00003E3010E8CEC20F0FAEC21F019EC21F05C
:102AF000030EEB500318E8AE02D0033408D00050A8
:102B0000EE5C0150EE580250EE580350EE582DE2A4
:102B1000170EDBCF06F0180E02EC1FF0E83425E2AA
:102B200004500008000E055420E21CD020EC20F0D8
:102B3000080EDBCF02F0090EDBCF03F000500110CE
:102B4000021003100FE06EEC23F002E6A8EC1FF079
:102B50000CE3F1EC1CF0E8AE02D0033402D0B1EC8F
:102B60001FF003E2010E8CEC20F0190EDB5004E1A3
:102B70000E0EDBB4DAD3D5D30E0EDB50060B01E01C
:102B8000CDD30E0EDBA8D1D33D510C0A01E1ACD15F
:102B90000B0A39E00F0A37E0010A35E0020A33E098
:102BA000010A31E00C0A01E0B2D1A1EC22F008E107
:102BB000EE50071905E1EE50081902E1EE5009192F
:102BC00020E0130E06CFDBFF140E07CFDBFF150E40
:102BD00008CFDBFF160E09CFDBFF02EC1DF0010E64
:102BE000E66E040E38EC1CF0130EDBCF06FF140E5D
:102BF000DBCF07FF150EDBCF08FF160EDBCF09FF7B
:102C000094D3070E3D6F0E512D5D006E2E510F5562
:102C100095EC1CF03BEC1FF007E00F0183EC1CF07F
:102C2000D950040F83EC21F0DEEC1FF0036A060E8E
:102C3000E96E0F0EEA6EBAEC1FF02FEC1DF03AECC5
:102C400021F00450EE5C006E0550EE58016E065007
:102C5000EE58026E0750EE58036E0001800E03140A
:102C600002E0E66A60D30F012F510E5D046E0F5132
:102C70003055056E066A076A05AE02D00668076819
:102C80000450065D006E05500759016E0650085944
:102C9000026E07500959036E2FEC1DF0BFEC21F0B6
:102CA0000CE22DEC22F064EC1CF00050EE5E0150C2
:102CB000EE5A0250EE5A0350EE5A3AEC21F0EE5022
:102CC000045C006EEE500558016EEE500658026E20
:102CD000EE500758036E2FEC1DF0DECF3BF0DECF39
:102CE0003CF0DECF3DF0DDCF3EF0DD52DD523E3434
:102CF000000E3E1809E6D880000E3B54000E3C54EE
:102D0000000E3D54000E3E5463E22DEC22F064ECC4
:102D10001CF0EE50005CEE500158EE500258EE50A0
:102D2000035856E3249724993F91040E2FCFDBFFDD
:102D3000050E30CFDBFF64EC1CF0EE502F27EE5079
:102D40003023C6EC20F000500E5D01500F590BE30C
:102D5000BFEC21F02AE20E512F5D006E30510F556D
:102D6000016E00011ED0B0EC1CF00E510224006E6A
:102D70000F51032095EC1CF0DBCF00F0050EDBCFEC
:102D800001F02F51005C305101580FE2040EDB506E
:102D90002F5D0001006E050EDB500F013059000160
:102DA000016EF7EC1EF087EC20F029512F5D2A51BF
:102DB000305906E383EC1CF000502F5F0150305B6C
:102DC00029510E5D2A510F5928E393EC22F025D0AA
:102DD0000E512F1902E10F5130191FE024A71CD00A
:102DE00024A919D0CBEC1EF0016E026A036A01AE71
:102DF00002D0026803683BEC1DF0BFEC21F008E252
:102E00002DEC22F001AE02D0026803683BEC1DF00D
:102E100087EC20F03F85248924872D512F1917E155
:102E20002E51301914E13FB702D03E9910D0FDEC7D
:102E300020F00DE10751EE180AE10851EE1807E104
:102E40000951EE1804E103E13E993F972491145192
:102E5000151106E161EC21F0EE50ED1001E03F8329
:102E600068EC23F0080E3D5D1CE1FDEC20F04FE125
:102E70000751EE184CE10851EE1849E10951EE18DE
:102E800046E145E1F2EC20F0F30E0F013527FA0E92
:102E90003623020E3723000E38233E89090E3D6F7C
:102EA00036D0090E3D5D0AE10E0EDBB030D002ECEB
:102EB0001DF0E66A140E38EC1CF030D20A0E3D5DAF
:102EC00026E1FDEC20F001E030D20751EE1801E0E0
:102ED0002CD20851EE1801E028D20951EE1801E079
:102EE00024D201E022D21AD2FDEC20F001E01DD262
:102EF0000751EE1801E019D20851EE1801E015D281
:102F00000951EE1801E011D201E00FD207D20E0EE6
:102F1000DBBA0BD20B0E3D5D01E107D20A0E3D5D1F
:102F200001E103D20C0E3D5D01E1FFD1D950FB0F51
:102F3000CDEC20F001E176D1B7EC1DF0013402E2D6
:102F400058EC1FF001E2A5D04AEC22F0026E036AB1
:102F50000A0EDB50F35C006E0B0EDB500358016E63
:102F60001DEC23F040EC5EF0E552E552B7EC1DF0AD
:102F7000D950FB0F04EC21F0FB0EDBCF00F0FC0E70
:102F8000DBCF01F00C0EDBCF02F00D0E24EC1CF0B9
:102F90000CE20C0EDBCF3CF00D0EDBCF3DF0FB0E58
:102FA0003CC0DBFFFC0E3DC0DBFFFB0EDBCF00F0C7
:102FB000FC0E75EC1EF0FB0EDB5031250001006E9F
:102FC000FC0EDB500F01322100011BEC1FF016E25A
:102FD000315119EC23F03255C0EC1EF0B2EC22F066
:102FE000ACEC22F08AEC1CF048EC21F00F012951E6
:102FF0000024316F2A510120326F0BD0A6EC21F052
:10300000ACEC22F034EC1FF03C500F0131273D5066
:103010003223221D01E1231D01E104D134EC1FF014
:103020003C50225F3D50235B16512225006E175104
:10303000232195EC1CF0DBCF00F03BEC1FF002E00D
:103040000F0124D00F01233504E222510008000EA5
:10305000235501E2E7D0040EDBCF00F0050E75EC3E
:103060001EF0040EDBCF3CF0050EDBCF3DF03C50F4
:1030700031273D50322331512B5D32512C5906E21C
:103080008BEC1DF00050315F0150325B22692369E7
:10309000C9D0B7EC1DF0013401E3C4D058EC1FF0E7
:1030A00001E3C0D00A0EDBCF02F00B0EDBCF03F042
:1030B00074EC23F0016E0C0EDBCF04F00D0E15EC5A
:1030C00020F00FE20C0EDBCF02F00D0EDBCF03F091
:1030D00051EC22F0016EFB0E00C0DBFFFC0E01C0C4
:1030E000DBFF4AEC22F047EC20F09DEC1EF074EC84
:1030F00023F01BEC1FF030E231512B5D026E2C519E
:103100003255036E01EC23F051EC22F095EC1CF0EB
:103110003BEC1FF00AE1B2EC22F00A0EDB500F018B
:103120007EEC1DF08AEC1CF01DD0A6EC21F09DEC8D
:103130001EF00F0129512B5D046E2C512A55056E8E
:10314000010E0426000E05228CEC21F0016E1DEC10
:1031500023F0B8EC22F006D0A6EC21F00A0EDB50EA
:103160007EEC1DF00F01221D07E1231D05E163EC3C
:1031700020F05CEC20F056D0B7EC1DF02251005C42
:10318000235101582AE2BEEC1CF013E3FB0EDBCF07
:1031900008F0FC0EDBCF09F00A0EDB500824066EA7
:1031A0000B0EDB500920076E2251065C2351075895
:1031B00003E25CEC20F00ED06AEC20F00A0EDB504B
:1031C0000001005C0F01166F0B0EDB50000101586F
:1031D0000F01176F63EC20F025D0D0DB23E2B7ECB2
:1031E0001DF022511625026E23511721036E005047
:1031F000025C0150035816E3FB0EDBCF06F0FC0E19
:1032000002EC1FF02251045C026E23510558036E3C
:103210001651025C006E17510358016E00501627BC
:1032200001501723A8EC22F017E0070E3D5D02E0E5
:1032300078EC20F03EAF05D059EC21F0F5EC06F02B
:103240000BD03E8F3EBD08D03E8D71EC20F00F0EAE
:103250000F013B27000E3C230E0EDBA066D00ACFE9
:1032600000F00BCF01F00CCF02F00DCF03F0002ADD
:10327000000E012202220322170EDBCF04F0180EEB
:10328000DBCF05F0066A076AD950130FEDDAEE506E
:103290000426EE500522EE500622EE500722005082
:1032A000041843E10150051840E1025006183DE1C1
:1032B000035007183AE139E10F010A2B000E0B23E6
:1032C0000C230D233D51090A26E0010A14E00F0AE0
:1032D00008E0010A26E10C0E3D6F010EE66E110EAC
:1032E00023D00B0E3D6F71EC20F01E0E0F013B271B
:1032F000000E3C2316D0FDEC20F00AE10751EE1839
:1033000007E10851EE1804E10951EE1801E103E06C
:103310000A0E3D6F06D0E66A100EAADA1DEC14F014
:1033200004D0010EE66E100EA3DA1A0EE15C02E282
:10333000E16AE552E16E80D285EC23F072DA4FEC5F
:1033400023F007E1010EF36EFC0EF3CFDBFFFD0E61
:10335000DB6A0F01275119EC23F02855016E000696
:1033600055EC20F038EC1EF0DECF04F0DDCF05F098
:1033700010EC23F06FE3F5EC06F0F90EDB50030BD5
:1033800003E1F90EDB80DB821FEC1FF0040E3CC072
:10339000DBFF050E3DC0DBFF38EC1EF095DACFDA1F
:1033A000F90EDBA20ED0DBA006D0B6EC1EF0D89052
:1033B0000132003202D0B6EC1EF0D950040F83EC7B
:1033C00021F0040EDB500F0127250001006E050ED1
:1033D000DB500F012821000108EC21F000C0DEFFC6
:1033E00001C0DDFF020E31CFDBFF030E32CFDBFF6A
:1033F0000F01221D01E1231D0FE06AEC20F0D950DE
:10340000020F83EC21F024DA06EC23F005E283DBE3
:10341000D950020F53EC23F01BDA0050335D0150FA
:1034200034590BE2B6EC1EF00050335D01503459B4
:103430001BE2F90EDBB40ED00FD0BFEC22F00CE291
:10344000B6EC1EF00050295D01502A590DE2F90E2C
:10345000DBA402D0000E45D0DECF33FFDDCF34FF3A
:10346000DECF31FFDDCF32FFBFEC22F028E2F90ED4
:10347000DB50040B24E0020EDBCF3CF0030EDBCF6D
:103480003DF029513C5C006E2A513D58016E1DEC07
:1034900023F0C6EC22F042CFE6FFCFEC1FF052EC57
:1034A00021F00F01D4EC1FF00AE2DE50295D006E1E
:1034B000DD502A59016E0050315F0150325BDECF82
:1034C00029FFDDCF2AFF96EC20F027CF2FFF28CF52
:1034D00030FF4EEC1FF0070E3D5D02E159EC21F08C
:1034E000010E006E060EE15C02E2E16AE552E16E59
:1034F0000050A2D19CD9420EE126F90EDB50020AFF
:103500005AE0020A20E0010A01E095D0FC0EDB50EF
:10351000020A14E0020A08E0010A01E08CD0ACECD7
:1035200021F0F9EC5EF054D0B2EC21F002E115ECA0
:1035300023F01DDAB6D9C1EC41F017D0ACEC21F084
:10354000A6EC23F045D0FC0EDB50020A1AE0020A7A
:103550000EE0010A70E1CDEC22F003E1A2D991EC7A
:1035600020F005DA78D984EC41F0EED964D0ACECE7
:1035700021F0D8EC40F08DDA7CEC41F000095BE101
:10358000FBD7CDEC22F003E18CD991EC20F093DB5A
:1035900033EC23F050E0B6EC20F001E26FD950D9C3
:1035A00084EC41F0D1D9E7EC20F0FD0F04EC21F0E0
:1035B000BEEC20F0EDD7FC0EDB50020A25E0020A3B
:1035C00009E0010A38E1D3D946D96BD9CDEC23F013
:1035D00060DA31D0B2EC21F002E115EC23F06BDBC4
:1035E00033EC23F028E0B6EC20F001E247D900EC00
:1035F00022F010D9D950FA0F04EC21F021D9C4ECF3
:1036000021F0BEEC20F0ECD756DB33EC23F013E0D6
:10361000B6EC20F001E232D900EC22F0E7EC20F029
:10362000FA0F04EC21F0F6D8D950FD0F04EC21F08C
:10363000BEEC20F0EAD7420EE15C02E2E16AE5521C
:10364000E16EFAD0F4D8420EE126FC0EDB50020AFD
:103650001FE0020A08E0010A2DE189D9BADAFBD895
:1036600042EC1FF027D0B2EC21F002E115EC23F080
:1036700022DB33EC23F01EE0B6EC20F001E2FED8B2
:1036800043EC23F0DDD8C4EC21F03BEC23F0F1D780
:1036900012DB33EC23F00EE0B6EC20F001E2EED8C2
:1036A00043EC23F0E7EC20F0FD0F04EC21F03BECC1
:1036B00023F0EFD7420EE15C02E2E16AE552E16EEF
:1036C000BBD0040EDBCFE9FF050EDBCFEAFF140E03
:1036D000EA02F3CFEAFFE902F3CFE9FFF450EA266A
:1036E000000EE9260E0EEA221200FD0EDBCFE9FFE6
:1036F000FE0EDBCFEAFF1200A20E006ECD0E016EB1
:10370000000E026EDFCF03F0046A056A060E406EFB
:10371000416A426A03C03BF004C03CF005C03DF082
:10372000F4EC5BF038C003F039C004F03AC005F0A7
:1037300000503824F36E01503920F46E02503A20C4
:10374000F86EF4CFF7FFF3CFF6FF1200C6EC20F0CF
:10375000020ED8800056000E0156140E0102F3CF5F
:1037600001F00002F3CF00F0F4500126F3CFE6FFA2
:1037700001C0E6FF010EE66EE76ED3EC22F0E750E3
:103780000226000E0322140E0302F3CF03F00202FE
:10379000F3CF02F0F4500326000E02260E0E032291
:1037A000FCEC22F0010EE66E040EDBCF04F0050EF9
:1037B000DBCF05F0140E0502F3CF05F00402F3CFC2
:1037C00004F0F4500526000E04260E0E052204C057
:1037D000E6FF05C0E6FFB8EC22F00E01386B396B4E
:1037E0001200E96EFF0EDA20EA6E12003E8B8BECBF
:1037F00065F03AC000F03BC001F0026A036A060EB1
:103800000026000E01220222032200C039FF01C05F
:103810003AFF1200400EDBCF00F0410EDBCF01F08B
:10382000120037EC23F0CAEC06F0E5521200D9CFB3
:10383000E6FFE1CFD9FF1200E552E7CFD9FF120032
:10384000B8EC21F066EF21F0DBCF03F015EF22F0AA
:10385000020EDAEF22F0FD0EDBCFE6FF37EF23F0AA
:10386000E926000EEA221200E96EDACFEAFF120022
:10387000E66E07EC10F0E552E5521200F70EDBCFD2
:103880003CF0F80EDBCF3DF0400E3CC0DBFF410EBC
:103890003DC0DBFF12002EDE006E080EE15E005020
:1038A0001200FA0EDBCFE6FFFB0EDBCFE6FF1200C5
:1038B000F2EC20F0E60E0F013527F50E3623050E4B
:1038C0003723000E38231200D9CFE9FFDACFEAFF01
:1038D0001200EAEC21F0E0EC22F0250E0226000EA8
:1038E000032201EC23F0040E32EC22F0050EDB5033
:1038F000032008EC21F0D950120037EC23F0C3EC80
:1039000008F0E55212002751295D006E2A51285512
:10391000016E120048EC21F01DEC23F0E66AE66827
:10392000E668C6EC22F08CEF22F0016EE7EC22F0A4
:10393000040E12000050EE260150ED22120000503D
:10394000EE5E0150ED5A1200E552E552E552E552A5
:103950001200FB0EDBCFE9FFFC0EDBCFEAFF12000B
:103960002751295D026E2A512855036E1200F70E69
:10397000DBCFE6FFF80EDBCFE6FF12007AEC23F098
:103980000A0E32EC22F00B0EDB500320016E2251A6
:103990001625046E23511721056E10EF23F01C0D20
:1039A000F3CFE9FFF4CFEAFF600EE926000EEA222A
:1039B0001200FB0EDBCFE6FFFC0EDBCFE6FFFD0EB9
:1039C000DBCFE6FF120049EC23F0E0EC22F0DE5002
:1039D000025C006EDD50035887EC21F0040EE15CC0
:1039E0001200FAEC21F0060EDBCF3BF0070EDBCF26
:1039F0003CF0080EDBCF3DF0090EDBCF3EF03E5031
:103A0000031812000F0EDBCF06FF100EDBCF07FFEF
:103A1000110EDBCF08FF120EDBCF09FF1200DF50C3
:103A2000006E016A090E005C000E01581200E66E7D
:103A300078EF22F0FC0EDBCFE9FFDB2AFD0EDBCFB7
:103A4000EAFF1200DBCFE6FFE66AE668E66842CFEF
:103A5000E6FF1200F3CF00F0F4CF01F0120000C037
:103A6000DFFF010E01C0DBFF020E02C0DBFF030E11
:103A700003C0DBFF12000050065F0150075B0250DD
:103A8000085B0350095B1200EECF00F0EFCF01F0AE
:103A90001200006E060EE15E005012001A51182549
:103AA000026E1B511921036E02501025006E035047
:103AB000112108EF22F081EC65F00F0135513A5CDD
:103AC000006E36513B58016E37513C58026E3851EA
:103AD0003D58036E0001800E0314120029512B5D26
:103AE000026E2C512A55036E3351315D046E3251F2
:103AF0003455056E8CEC21F0016E12003125000169
:103B0000006E0B0EDB500F0132210001016E1DEC27
:103B100023F052EF21F0295119EC23F02A5508EF38
:103B200021F0E00E006E0D0EDBCFE7FF0050E72620
:103B30000D0EE7CFDBFF120029DB030E005C000E49
:103B40000158120042CFE6FF2DCFE6FF2ECFE6FF51
:103B50001200020E00C0DBFF030E01C0DBFF1200EB
:103B6000260EDBCF00F0270EDBCF01F012000A0E8D
:103B7000DBCF00F00B0EDBCF01F01200016E260E42
:103B800000C0DBFF270E01C0DBFF280E14CFDBFFD8
:103B9000290E15CFDBFFBFEF21F0130EDBCF0AFF9D
:103BA000140EDBCF0BFF150EDBCF0CFF160EDBCF99
:103BB0000DFF0A2B000E0B230C230D2312000A0EFF
:103BC000E66EE66AFB0EDBCFE6FFFC0EDBCFE6FF20
:103BD0001200F90EDBCFE6FFFA0EDBCFE6FFFB0E9D
:103BE000DBCFE6FF1200F36E030EF3CFDBFF120014
:103BF000036EF80E32EC22F0F90EDB50032008EFD2
:103C000022F0D3EC22F0DE500224006EDD500320BF
:103C100087EF21F081EC65F03A500F010225356FF6
:103C20003B500321366F3C500421376F3D50052136
:103C3000386F1200DE502D250001006EDD500F019F
:103C40002E210001016E0F012951005C2A510158FB
:103C50001200080EDBCF3CF0090EDBCF3DF0FA0E70
:103C60003CC0DBFFFB0E3DC0DBFF0F0EDB50120044
:103C7000E5DBDBCF03F0FC0EF5DBFD0EDB500320B4
:103C8000016E12009AEC22F0040DF3501200F9ECD0
:103C90005EF0026E060EE15E02501200260EDBCFD1
:103CA0003CF0270EDBCF3DF01200DFCFE6FFCAEC81
:103CB00006F0E5521200400EF36EDB6E410EDB6A39
:103CC0001200180EE66E0F0EE66E1200E66E000E83
:103CD000DA20E66E120086EC50F0E552E552120052
:103CE000EECFE6FFEFCFE6FF1200DBCF01F00001E1
:103CF00000500F010A27000101500F010B23000E95
:103D00000C230D231200FB0EDBCF18FFFC0EDBCFC4
:103D100019FFFD0EDBCF1AFFFE0EDBCF1BFF1200DB
:103D2000280EDBCF3CF0290EDBCF3DF0260E3CC049
:103D3000DBFF270E3DC0DBFF12000A0EDB500F0138
:103D400031250001026E0B0EDB500F013221000104
:103D5000036E1200D8900332023267D3610EF36E05
:103D60000D0EDBCFF4FFF350F45C1200DECF00F059
:103D7000DDCF01F01200EECF02F0EFCF03F0120022
:103D800047DAE7EF22F00E512F5D046E30510F55E8
:103D9000056E8CEF21F02F510E5D006E0F513055E6
:103DA0001200020E50DBDAEF22F0DBCF01F0DECFA3
:103DB00002F0DDCF03F039D341DBDBCF03F002505B
:103DC000005C035001581200D950100F006E0C0E09
:103DD000DB50002428EF22F08BEC65F00F013A5005
:103DE0003B5D006E3B503C59016EE83412000050C0
:103DF0000F010627000101500F010723000E0823C1
:103E000009231200DBCF07F00A0EDB500624046EF4
:103E10000B0EDB500720056E12000050EE260150FD
:103E2000EE220250EE22120042CFE6FF33CFE6FF31
:103E300034CFE6FF1200016E0F0106EF23F0FA0EF9
:103E4000DBCF3CF0FB0EDBCF3DF01200260EDBCFCC
:103E5000E6FF270EDBCFE6FF1200240EDBCFE6FFE6
:103E6000250EDBCFE6FF1200FB0EDBCF3CF0FC0E95
:103E7000DBCF3DF01200050EDBCF01F00001800E1C
:103E80000114120024EC5FF0006E070EE15E00509A
:103E9000120000C0E6FF01C0E6FF120027CF2DFF91
:103EA00028CF2EFF1200040EDB6A050EDB6A12001B
:103EB00000500008000E01541200DCEC3FF0E55207
:103EC000E5521200F3CFEEFF01C0EDFF1200140E19
:103ED000EECFDBFF150EEECFDBFF160EEECFDBFFD6
:103EE00012003151335D006E34513255016E0006BF
:103EF000000E015A1200DBCF3DF00A0E3CC0DBFF82
:103F00000B0E3DC0DBFF12000E0EDB50F36E0C0EED
:103F1000DBCFF4FFF350F45C12000D0EEFCFDBFFAC
:103F2000010EF36E0F0EF3CFDBFF1200E9CF00F0AE
:103F3000EACF01F0E9CFE6FFEACFE6FF1200260E56
:103F4000DB6A080EF36E270EF3CFDBFF3F8512000E
:103F5000000EEE5C000EEE58000EEE58000EEE580D
:103F6000120000503B5C01503C5802503D58035039
:103F70003E581200EE500026EE500122EE50022272
:103F8000EE50032212000154000E0254000E03549E
:103F900012000E0EDB50006E016AD9501200DECF07
:103FA000E6FFDDCFE6FF12003351315D3451325967
:103FB0001200B4DBD880000E00541200E7D8026A69
:103FC0001200E552E7CF03F0E552E7CF02F00250CE
:103FD0001200030EDBCFE6FF07EC10F0E552E552CE
:103FE0001200016E240E00C0DBFF250E01C0DBFFB6
:103FF0001200010EE66E020EE66E0F0EE66E120065
:10400000256B260E026F036B046B056B1200D950F3
:10401000FD0FE66EFF0EDA20E66E120022EC1BF0BA
:10402000006E080EE15E00501200DBCF05F010EFCD
:1040300023F0060E00C0DBFF070E01C0DBFF1200FD
:10404000060EDBCF00F0070EDBCF01F01200DBCF56
:1040500002F00050015C000E02581200252BD8908F
:1040600002370337043705371200F90EDBCF3CF077
:10407000FA0EDBCF3DF01200F4CFDBFF0C0EE66E44
:10408000E66AD9501200E66EE66A66EF21F0E66E47
:10409000E66A40EC5EF0E552E5521200240E3CC0A8
:1040A000DBFF250E3DC0DBFF1200000E015A00C0F1
:1040B000DEFF01C0DDFF1200FB0EDBCF16FFFC0EA2
:1040C000DBCF17FF12000A0EDBCF22FF0B0EDBCF78
:1040D00023FF120022511625006E23511721016E75
:1040E00012008BEC65F03AC03BFF3BC03CFF120076
:1040F00031CF33FF32CF34FF120000C0F3FF01C0D5
:10410000F4FF120029CF33FF2ACF34FF12002FCF44
:104110000EFF30CF0FFF1200F36E190EF3CFDBFF4F
:104120001200E9EC3FF0E552E552120027CF0EFFF6
:1041300028CF0FFF1200E66E050EE66E1200EE525B
:10414000EF50800B120075EC1BF0020E30EF1CF0EC
:10415000DCDAA9DEE8DAE552020EF3CFDBFF030E6C
:10416000F4CFDBFFD950020F2EEF23F00AEC1CF046
:10417000F70EDBCF02F0F80E24EF1CF00AEC1CF077
:10418000D950F70FF1EC1BF09FEF1CF0040EDBCFC2
:1041900000F0050EDBCF01F01200F1EC1BF0EE5049
:1041A000ED10120030EC1CF0EECFE6FFEECFE6FF94
:1041B00097DDA9EC50F0A4EC1CF03AC000F03BC035
:1041C00001F03CC002F03DC003F075EF1BF020ECA5
:1041D0001CF02BEC1CF0A6EC23F05BDC0AEC1CF0D2
:1041E000D950120081EC65F03AC035FF3BC036FF74
:1041F0003CC037FF3DC038FF1200D9500F0F34ECE0
:104200001CF00651EE181200F1EC1BF09AEF1CF0B6
:10421000016E010E0026000E0122120061EC1BF05F
:10422000100E30EF1CF035DA64EC1CF0EE50ED109F
:104230001200D950060F34EF1CF0D950260F34EF7E
:104240001CF0016ED950280F2EDA8ADC280EDBCF45
:1042500002F0290E24EF1CF00A0EDBCF3CF00B0E0F
:10426000DBCF3DF0FC0E3CC0DBFFFD0E3DC0DBFFB5
:104270001AEF1DF00F0EDBCF04F0100EDBCF05F0B0
:10428000110EDBCF06F0120EDBCF07F064EF1CF04F
:1042900031DA040EDB50025C006E050EDB50035871
:1042A000016E12007AEC1AF0026E080EE15E025006
:1042B0001200010EE66E100E38EF1CF0D8D962EF36
:1042C0000AF075EC1BF00E0E30EF1CF0D9CFE6FFB4
:1042D000DACFE6FF12002D51295D006E2A512E55CE
:1042E00095EC1CF0DBCFE6FF050EDBCFE6FF1200FE
:1042F00042CFE6FF0ECFE6FF0FCFE6FFE66AC30E22
:104300001ADF4BEF1CF034EC1CF09AEF1CF0016E3E
:1043100000C0F3FFF46E12000450025C006E055002
:1043200003581200CFEC1CF044EC1DF0250E005E8B
:10433000000E015A49EF1FF0C9DCD0EC50F0A4EC9C
:104340001CF02AEC1DF0001E011E1200FB0EDBCF3C
:10435000E6FFFC0E22EF1DF0B7EC1CF051EC1CF058
:104360002BEF1CF0D950FD0FF1EC1BF09FEF20F06C
:10437000400EDBCFE6FF410EDBCFE6FF12002F51F0
:104380000E5D30510F591200C1EC41F0A4EF1CF04A
:104390001C0D2AEC1DF0600E0026000E012249EFD4
:1043A0001FF064EC1CF0EE500F012D27EE502E2371
:1043B00028EF1CF0EC51CFEC1CF01B0E30EC1CF085
:1043C000EF50E66E1200DFEC1DF07BDCF9EC5EF0E6
:1043D00049EF1DF0DBCF3DF0060E3CC0DBFF070EC2
:1043E0003DC0DBFF1200EECF00F0EECF01F0C3DCEA
:1043F00061EF1BF00C0EDBCF00F00D0E8EEF23F003
:1044000020EC1CF051EC1CF0CDEC23F049EF1DF03A
:10441000016E00501219406F01501319416F1200C4
:1044200061EC1BF00A0E30EF1CF00050025C0150F2
:104430000358120017EC1CF011EF1CF0FA0EDBCF42
:1044400002F0FB0E1200DBCFDEFFDBCFDDFF120040
:10445000E96E000EDA20EA6E120083EC1CF0026AAC
:10446000036A1200DB500224006E1200010E17ECEA
:104470001DF0A2EC1DF04BEF1CF0D6DC010E17EC8A
:104480001DF04BEF1CF00ADC3C500F010E273D5095
:104490000F23120075EC1BF00C0E30EC1CF042EFF9
:1044A0001EF00A0EDB50025C006E0B0EDB50035850
:1044B0001200010EE66E110E38EC1CF00F01120016
:1044C00028EC1CF0B0EC1CF0AAEF1EF064EC1CF021
:1044D0009FEC1CF04EEF1FF0F90EDBCF02F0FA0E4E
:1044E00024EF1CF0D9EC1CF0A2EC1DF00EEF20F034
:1044F000FC0EDBCFE6FFFD0EDBCFE6FF120017EC74
:104500001CF0040EE12611EF1CF0F90EDBCFE6FFE4
:10451000FA0EDBCFE6FF12007AEC1AF0046E080EFA
:10452000E15E0450120083EC1CF000500E5F01505D
:104530000F5B1200EF50F00BE842E842E842E8421D
:104540001200D9500F0F34EC1CF0EE500619120077
:10455000D950170F2EEF23F031CFE6FF32CFE6FF11
:104560004BEF1CF0040EDBCFE6FF050E22EF1DF033
:104570007AEC1AF0066E080EE15E0650120028EC86
:104580001CF03351005C34510158120042CFE6FF59
:1045900029CFE6FF2ACFE6FF1200D950FA0FF1EC3F
:1045A0001BF09FEF20F0040EDBCF02F0050EDBCFF7
:1045B00003F01200DBCF00F0030EDBCF01F012009E
:1045C000020EDBCF02F0030EDBCF03F01200040E6D
:1045D00000C0DBFF050E01C0DBFF120064EC1CF025
:1045E000010EEE1812007DEC1CF00F013F8112004D
:1045F000F1EC1BF00DEF1FF002C0E6FF03C0E6FF79
:104600001200010E0226000E0322120000502B5D44
:1046100001502C59120030EC1CF03AC0EEFF120091
:104620000050045C0150055812002BEC1CF05DEFAB
:104630001FF02B5D006E2C51120000C0E6FFE66EED
:10464000120070EC1EF06BEC1EF02AEF1DF001C0A2
:10465000EEFF02C0EEFF03C0EEFF120034EC1CF0D0
:10466000EE50ED101200D950F70FCDEF20F0FE0EF6
:10467000DBCFE6FF12000AEC1CF0026AD950F90FFA
:10468000B7DFBEEF20F074DEE9EC1DF01FDE42EF75
:104690001FF0E552F3CFDEFFF4CFDDFF1200D9505B
:1046A000FC0FCDEF20F034EC1CF09FEF1CF04BDD45
:1046B00044EF1DF0C2DD000ED880EE54080EED541C
:1046C0001200B7DDEE06000EEE5AEE5AEE5A120058
:1046D000F8DDEECF14FFEDCF15FF1200AADDD89064
:1046E000030EEB50000A1200FB0EBCDEFC0EDB508A
:1046F00003201200FB0EDBCF02F0FC0EDBCF03F039
:1047000012008CDDEE50ED10120017EC1CF0060EBE
:10471000E126120062EC1FF075EF1BF0DBCF01F019
:10472000026A036A120011EC1CF0A1DFD1EF08F05D
:0A47300030EC1CF086DF75EF1BF083
:06473A0035EC2DF0ACA2ED
:10474000FED7FE0EDB50AD6E3AEF2DF035EC2DF0BE
:10475000D7EC2DF020E08294020EC96EC7A0FED7E0
:10476000FE0EDB50C96EC7A0FED7FD0EDB50C96E32
:10477000C7A0FED7E9EC2DF001E2DB0600500110E6
:1047800007E0F1EC2DF001E3DB2AEF50C96EF2D720
:10479000C7A0FED782843AEF2DF035EC2DF0D7EC90
:1047A0002DF021E08294030EC96EC7A0FED7FE0E45
:1047B000DB50C96EC7A0FED7FD0EDB50C96EC7A087
:1047C000FED7E9EC2DF001E2DB06005001100AE013
:1047D000C96AC7A0FED7F1EC2DF001E3DB2AC9CFEF
:1047E000EFFFEFD782843AEF2DF035EC2DF0E65253
:1047F0008294020EC96EC7A0FED75F0EC96EC7A015
:10480000FED7FC0EDBA005D0800EC96EC7B004D069
:10481000FDD7C96AC7A0FED7F7EC2DF001E3DB2A6C
:10482000EFCFDFFFDF50C96EC7A0FED7DF50F4E146
:104830008284E5523AEF2DF062EC2EF0DF6A82942A
:10484000030EC96EC7A0FED75F0EC96EC7A0FED704
:10485000FC0EDBA005D0800EC96EC7B004D0FDD71A
:10486000C96AC7A0FED7C96AC7A0FED7010EC9CFC3
:10487000DBFFF7EC2DF001E3DB2A010EDBCFEFFFCE
:10488000DB5007E18284DF50006E020EE15C05E23E
:1048900002D0DF2AE8D7E16AE552E16E00503AEF34
:1048A0002DF062EC2EF0FE0EDB50010B02E0800ECC
:1048B00001D0000EE76E010EE7CFDBFF8294020EFF
:1048C000C96EC7A0FED7FE0EDB407F0B700FC96E0E
:1048D000C7A0FED7010EDB50C96EC7A0FED7DF6AA6
:1048E0004C0EDF5C0AE2FDEC2DF001E3DB2AEF5019
:1048F000C96EC7A0FED7DF2AF3D78284020EE15C1F
:1049000002E2E16AE552E16E3AEF2DF062EC2EF040
:10491000FE0EDB50010B02E0800E01D0000EE76EB0
:10492000010EE7CFDBFF8294030EC96EC7A0FED74E
:10493000FE0EDB407F0B700FC96EC7A0FED7010EC5
:10494000DB50C96EC7A0FED7DF6A4C0EDF5C0BE2FE
:10495000C96AC7A0FED7FDEC2DF001E3DB2AC9CF61
:10496000EFFFDF2AF2D78284020EE15C02E2E16A05
:10497000E552E16E3AEF2DF035EC2DF0E652FD0EEA
:10498000DBCFE9FFFE0EDBCFEAFFEFCFDFFFDF502B
:1049900014E0610EDF5C03E3DF507A0806E2410EAB
:1049A000DF5C05E3DF505A0802E3010E07D0FD0E7D
:1049B000DB2AFE0EE4E3DB2AE2D7000EE5523AEFF3
:1049C0002DF035EC2DF0E652DF6A200EDF5C0CE2B4
:1049D000DF50816E808A809A400E816E8088808848
:1049E00080888098DF2AF1D70101606B616BE55206
:1049F0003AEF2DF035EC2DF0E65201015C6B5D6B6A
:104A00005E6B5F6BDF6A040EDF5C2AE2DF50EA6AEE
:104A10006B0FE96E010EEA22EF6ADF50EA6A6F0F50
:104A2000E96E010EEA22EF6AB9EC2DF0EF50FE08B4
:104A300008E0B9EC2DF0A0EC2DF0B9EC2DF0FE0E55
:104A4000EF6EBBEC2DF0EF50FE0808E0BBEC2DF054
:104A5000A0EC2DF0BBEC2DF0FE0EEF6EDF2AD3D7CD
:104A6000B0DFE5523AEF2DF035EC2DF0170EE126D0
:104A7000020E03EC2EF00C0E00C0DBFF0D0E01C089
:104A8000DBFF080108AF02D0089FB4DF0101CE515F
:104A9000CF11D011D11122E0A10ECE5D000ECF5961
:104AA000000ED059000ED15919E2CE6BCF6BD06BEE
:104AB000D16B0101636B646B656B666B676B686BD5
:104AC000696B6A6B800EE66EE66AE66ABA0EE66E9F
:104AD0000B0EE66E47EC5FF049EC2EF06BEC2EF01F
:104AE000EF50060A01E1A2D1030A01E1EED0060A65
:104AF00001E1C0D0010A01E198D0030A63E0010A94
:104B000001E0A4D101015C515D115E115F1102E071
:104B1000FE0E87D094EC2DF0D89006360736083676
:104B2000E806FAE167EC2DF0C2EC2DF00AEC2EF06D
:104B3000C2EC2DF021DFE552E55200091AE0E66AE9
:104B400004EC2DF0010EE66E0C0EDBCF00F00D0E26
:104B5000DBCF01F0026A036A66EC2EF002C0E6FFCA
:104B600003C0E6FFCFEC07F0046E080EE15E0450D0
:104B700021D0D9500E0FE66E000EDA20E66EC2ECA0
:104B80002DF030EC4FF0E55283EC2DF0E66A04ECAA
:104B90002DF0030EE66ED9500E0FE96EDACFEAFF64
:104BA000EECFE6FFEECFE6FFEECFE6FFEFCFE6FF7C
:104BB00011EC2EF057EC2EF001E148D16BEC2EF009
:104BC000010E7FD088EC2EF013E1BCEC2CF0E60E49
:104BD0000054F50E0154050E0254000E035401E377
:104BE00035D16BEC2EF018EC2EF001E32FD151D023
:104BF00001017B6B5EEC2EF0A8EC08F0E5528FEC27
:104C00002EF0EECF5CF1EECF5DF1EECF5EF1EFCFA7
:104C10005FF1EAEC2CF0A0EC2DF0EAEC2CF0FE0EAB
:104C2000EF6E14EC2DF0020EFFD001015C515D110E
:104C30005E115F1102E1FE0E06D1080E605D01E318
:104C400005D1E66A04EC2DF0030EE66E5CC1E6FFCA
:104C50005DC1E6FF5EC1E6FF5FC1E6FF11EC2EF02D
:104C600057EC2EF001E1F2D01BEC2DF06BEC2EF0A6
:104C7000030EDAD088EC2EF011E1BCEC2CF0E0EC65
:104C80002DF001E3E3D06BEC2EF018EC2EF001E3F5
:104C9000DDD07B6B08010871ADDED8D001017B6BE4
:104CA000080E605D01E3D2D0E66A5EEC2EF041ECC6
:104CB0002CF0E552E552000901E1C8D06BEC2EF072
:104CC000050EEF6E1BEC2DF0C1D088EC2EF001E14B
:104CD000A8D0080E0101605D01E3A3D05EEC2EF0C8
:104CE00062EC0AF0E552F3CF00F0F4CF01F06C0E65
:104CF000D880F354020EF45401E38ED0840EE66E95
:104D0000030EE66E44EC2EF05EEC2EF0BFEC0AF0E3
:104D100049EC2EF0150EF3CFDBFF160EF4CFDBFFC0
:104D2000150EDB500101ED250F01E96E160EDB506B
:104D30000101EE210F01EA6EEF6A120EDB6A01013A
:104D4000A6EC2DF04C0EE926000EEA22E9CF10F871
:104D5000EACF11F8A6EC2DF0E9CF12F8EACF13F85C
:104D6000120EE66EC30EE66E000E3EEC2DF016E05F
:104D700034EC2EF001E3DB2A120EDB800A0EDB6A34
:104D80004C0E1FEC2EF00AE27AEC2DF00801EA6AD4
:104D90001225E96E135159EC2DF0F2D7070EE66E8D
:104DA000C30EE66E000E3EEC2DF016E034EC2EF055
:104DB00001E3DB2A120EDB820A0EDB6A200E1FECF7
:104DC0002EF00AE27AEC2DF00801EA6A1025E96E6D
:104DD000115159EC2DF0F2D75EEC2EF050EC0AF0A8
:104DE000E552120EDBA01DD0DBB20DD012C8E6FFDB
:104DF00013C8E6FF10C8E6FF11C8E6FFC3EC39F0A0
:104E000083EC2DF0E5520101602BFE0EDB50410FCB
:104E1000E66E93DCE55205D0BCEC2CF0E0EC2DF016
:104E200015E26BEC2EF0060EEF6E10D0EAEC2CF0D3
:104E3000EF50FE0804E0EAEC2CF0A0EC2DF0EAECD8
:104E40002CF0FE0EEF6E14EC2DF0EF6A170EE15C05
:104E500002E2E16AE552E16E3AEF2DF062EC2EF0EB
:104E6000DF6A200EDF5C01E389D0DFCFE6FFDCECF8
:104E700003F0E552000901E17FD0DF50816E808AA6
:104E8000809A010E84CFDBFFDB50020B3AE0010178
:104E9000605137E008014C0E106F020E116F000ECA
:104EA000126F020E136F12C8E6FFE66E10C8E6FF1F
:104EB00011C8E6FF6DEC56F083EC2DF0E55212C8F8
:104EC000E6FF13C8E6FFDFCFE6FFEBDC83EC2DF057
:104ED00001016007672B000E682369236A23F40E23
:104EE000E66E020EE66E6C0EE66E020EE66E000ECA
:104EF000E66E020EE66EF9EC5EF0006E060EE15E06
:104F00000050010EDB50010B37E0080E0101615D1E
:104F100033E2625106E0800EDF10E66E9DEC23F076
:104F2000E55297EC56F06EEC2EF0E9CFE6FFEACFB3
:104F3000E6FFDFCFE6FFEADC83EC2DF0040EE66E41
:104F4000E66AB20EE66E010EE66E6EEC2EF04C0EC8
:104F50000026000E012266EC2EF0F9EC5EF0026EE7
:104F6000060EE15E025049EC2DF0500EE926000ECF
:104F7000EA22DFCFEFFF612BDF2A73D7020EE15C5D
:104F800002E2E16AE552E16E3AEF2DF0D9CFE6FF99
:104F9000E1CFD9FF0F0EE1260801095138E00801E1
:104FA00008A130D001017D517E117F1180110AE1ED
:104FB00081EC65F03AC07DF13BC07EF13CC07FF1F1
:104FC0003DC080F181EC65F001017D513A5C006EDD
:104FD00001017E513B58016E01017F513C58026E28
:104FE000010180513D58036ED880D00E0054430E0D
:104FF0000154CB0E0254020E035403E20801086B65
:10500000F9DC05D001017D6B7E6B7F6B806BFE0E42
:10501000DB50EA6A6F0FE96E010EEA22EF50040AD4
:1050200001E1D1D2070A01E1DED1010A01E1E8D0B4
:10503000030A6CE0010A01E0EED20101615101E1D5
:10504000EAD201015C515D115E115F1101E1E3D211
:10505000090EE66E08010851E96EEA6AD890E93651
:10506000EA360C0EE926080EEA22EECFE6FFEFCF75
:10507000E6FF030EE66E5CC1E6FF5DC1E6FF5EC1C2
:10508000E6FF5FC1E6FFCFEC07F0006E080EE15EC1
:105090000050E66EFE0EDB50EA6A770FE96E010EF5
:1050A000EA22E552E750EF6EFE0EDB50EA6A770F18
:1050B000E96E010EEA22EF50FE0801E1ACD2FE0ECD
:1050C000DB50EA6A6F0FE96E010EEA22010EEF6E05
:1050D00081EC65F03AC000F03BC001F03CC002F04A
:1050E0003DC003F0FE0EDB50040DF3CFE9FFF4CF1B
:1050F000EAFF240EE926080EEA2200C0EEFF01C0F6
:10510000EEFF02C0EEFF03C0EEFF85D2FE0EDB50C5
:10511000EA6A770FE96E010EEA22EF50E66E69EC5B
:1051200008F0E55200094DE1FE0EDB50040DF3CF0F
:10513000E9FFF4CFEAFF240EE926080EEA22EECFBB
:1051400004F0EECF05F0EECF06F0EFCF07F004C08D
:10515000E6FF05C0E6FF06C0E6FF07C0E6FF81ECFC
:1051600065F0E552E7CF07F0E552E7CF06F0E552EC
:10517000E7CF05F0E552E7CF04F0000104503A5CB8
:10518000006E000105503B58016E000106503C586E
:10519000026E000107503D58036ED880F30E005494
:1051A000FA0E0154020E0254000E035409E2FE0EE0
:1051B000DB50EA6A6F0FE96E010EEA22040EEF6E11
:1051C0002AD20101615101E126D2010EE66EFE0EE6
:1051D000DB50EA6A770FE96E010EEA22EF50E66EC5
:1051E00050DBE552E552000901E115D2FE0EDB501D
:1051F000EA6A6F0FE96E010EEA22020EEF6E0BD221
:10520000FE0EDB50EA6A770FE96E010EEA22EF50DC
:10521000E66E69EC08F0E552000903E00101615116
:105220000AE1FE0EDB50EA6A6F0FE96E010EEA2218
:10523000040EEF6ED7D0FE0EDB50EA6A770FE96EF0
:10524000010EEA22EF50E66ED1EC08F0E552F3CF02
:1052500000F0F4CF01F0310E005C010E015801E2C4
:10526000C1D05C0EE66EC60EE66E000EE66EEDC1B7
:10527000E6FFEEC1E6FFC2EC5FF0006E050EE15EF8
:105280000050080EEDC1DBFF090EEEC1DBFFEDC1E2
:10529000E6FFEEC1E6FFDBEC5FF0E552E552F3CF4F
:1052A00000F0F4CF01F0D950080FE96EDACFEAFF31
:1052B0000050EE260150ED22D9500A0FE96EDACFE8
:1052C000EAFF600EEE6E050EED6EB0C57CF10C0EC1
:1052D000DB6A500EF36E0C0EDBCFF4FFF350F45C80
:1052E00022E20A0EDBCFE9FFDB2A0B0EDBCFEAFF5F
:1052F00001E3DB2AEF50E66E080EDBCFE6FF090E76
:10530000DBCFE6FF0AEC57F0E552E552E552D95003
:10531000080FE96EDACFEAFF020EEE26000EED224C
:105320000C0EDB2AD6D7080EE66EC50EE66E000E12
:10533000E66E080EDBCFE6FF090EDBCFE6FF85EC5D
:105340005FF0006E050EE15E0050800EE66EC60E48
:10535000E66E000EE66E080EDBCFE6FF090EDBCF31
:10536000E6FF85EC5FF0006E050EE15E0050EDC1DA
:10537000E6FFEEC1E6FFFE0EDB50EA6A770FE96E4C
:10538000010EEA22EF50E66EDCEC09F0E552E55240
:10539000E552FE0EDB50EA6A770FE96E010EEA2253
:1053A000EF50E66EC3EC08F0E552FE0EDB50EA6A01
:1053B0006F0FE96E010EEA22030EEF6E0101610725
:1053C000370EE66E020EE66EB10EE66E050EE66E66
:1053D000600EE66E050EE66EF9EC5EF0006E060EEF
:1053E000E15E005018D1FE0EDB50EA6A770FE96EDD
:1053F000010EEA22EF50E66E69EC08F0E552000972
:105400000AE1FE0EDB50EA6A6F0FE96E010EEA2236
:10541000040EEF6ED7D0FE0EDB50EA6A770FE96E0E
:10542000010EEA22EF50E66E62EC0AF0E552F3CF8D
:1054300000F0F4CF01F0DC0ED8800054000E0154CF
:1054400075E2580EE66E020EE66EEDC1E6FFEEC1A5
:10545000E6FFFE0EDB50EA6A770FE96E010EEA22E4
:10546000EF50E66EBFEC0AF0006E050EE15E0050F4
:105470000D0EF3CFDBFF0E0EF4CFDBFF0D0EDB5076
:105480000101ED250F01E96E0E0EDB500101EE2149
:105490000F01EA6EEF6A020EE66EC30EE66E000EB4
:1054A000E66EEDC1E6FFEEC1E6FF0EEC60F0026EC7
:1054B000050EE15E0250F3CF00F0F4CF01F0005092
:1054C000011017E00101632B000E6423652366239E
:1054D000040001017C51040DF3CFE9FFF4CFEAFF92
:1054E000BA0EE9260B0EEA22EE2A000EEE22EE227A
:1054F000EE22FE0EDB50610FE66E9DEC23F0E552CE
:10550000FE0EDB50EA6A770FE96E010EEA22EF50D9
:10551000E66E50EC0AF0E552FE0EDB50EA6A6F0FC1
:10552000E96E010EEA22040EEF6E4CD0FE0EDB5047
:10553000040DF3CFE9FFF4CFEAFF240EE926080EAD
:10554000EA22EECF04F0EECF05F0EECF06F0EFCF7B
:1055500007F004C0E6FF05C0E6FF06C0E6FF07C08F
:10556000E6FF81EC65F0E552E7CF07F0E552E7CFC3
:1055700006F0E552E7CF05F0E552E7CF04F0000171
:1055800004503A5C006E000105503B58016E00016A
:1055900006503C58026E000107503D58036ED880FB
:1055A000F30E0054FA0E0154020E0254000E03547E
:1055B00009E2FE0EDB50EA6A6F0FE96E010EEA2285
:1055C000040EEF6E28D0FE0EDB50EA6A770FE96E0C
:1055D000010EEA22EF50FE080CE0FE0EDB50EA6AF4
:1055E000770FE96E010EEA22EF50E66E7AEC08F0D2
:1055F000E552FE0EDB50EA6A770FE96E010EEA22F1
:10560000FE0EEF6EFE0EDB50EA6A6F0FE96E010EC2
:10561000EA22EF6A00D00F0EE15C02E2E16AE55295
:10562000E16EE552E7CFD9FF12001FDA0B0EE1263B
:10563000200EE9DA070E00C0DBFF080E01C0DBFF19
:10564000BC0EED25006E020EEE21016E090E00C0AB
:10565000DBFF0A0E01C0DBFF050E08C8DBFF010EF1
:10566000F36E050EDB5004E0D890F336E806FCE15B
:10567000F3500101811513E0050EDBCFE6FFE6DAFA
:105680001CEC24F040DA006E016AD950090FE96E73
:10569000DACFEAFF0050EE260150ED22DFD0680E8F
:1056A000036EF80E046E010E056E050EDBCF06F0DC
:1056B000076A086A3E0E406E416A426A06C03BF0C5
:1056C00007C03CF008C03DF0F4EC5BF038C006F0D9
:1056D00039C007F03AC008F003503824006E045077
:1056E0003920016E05503A20026EF0DAE66EB5DA26
:1056F00091DA050EDB50010824E2040EDB6ADBCFF1
:1057000000F000C0E6FFA9DADBEC5FF0FCD9E7CFE0
:1057100000F0F3CF01F0F4CF02F0F350005C000E84
:10572000F4540FE2960E006E040EDB50E76E38DA8A
:10573000E750E926000EEA220050EF1A040EDB2A99
:10574000DED72EDAEF5070E0060EDB6A040EDB6A5D
:10575000030EF36E040EDBCFF4FFF350F45C16E29D
:105760001FDAEF500EE0060EDB2A070ED4DA080E21
:10577000DBCFEAFF01E3DB2AEF50E66EC8D9D4DACB
:1057800002D0C5D9EF6A040EDB2AE2D7060EDB5041
:10579000D8E0A9D9DF50E840E8403F0B22D982D9B0
:1057A00001E3DB2AC1DA9FD9010EDB50F00BE838A8
:1057B0000F0B066E030EDF14100DF350061011D9F7
:1057C00071D901E3DB2AB0DA060EDB50010817E2DB
:1057D0008AD9060E076E020EDB50C00B07C0E7FF2A
:1057E000E75204E0E8427F0BE706FCE1066E010E9B
:1057F000DB500F0B040DF3500610F3D801D03D0E13
:1058000051D901E3DB2A90DA060EDB50020806E2EA
:105810006AD9020EDB503F0BE4D801D03D0E42D9CD
:1058200001E3DB2A81DA8DD7090EDBCFE9FF0A0E0F
:10583000DBCFEAFFEF6A050EDBCFE6FF8FD9F5EC91
:1058400023F061D9010EF36E050EDB5004E0D89011
:10585000F336E806FCE1F350010181138F0EE66E8A
:10586000C60EE66E000EE66EF1D985EC5FF011DA39
:1058700075D95EDA0B0EE15C02E2E16AE552E16E97
:10588000F9D0F3D8080EE126FE0EDBCFE6FFD1EC0F
:1058900008F0E552F3CF00F0F4CF01F02C0EF35CEA
:1058A000010EF4585FE3690EE66EC50EE66E000E5B
:1058B000E66EEAD9C2EC5FF0ECD9B7DE35D9D89004
:1058C000063607360836E806FAE101D9DDD985EC57
:1058D0005FF0096E050EE15E09503A0EDF6ED95099
:1058E000010FE66E000EDA20E66E8ED8A5EC4FF0C2
:1058F0000AD9E552D9CFE6FFDACFE6FF19DA900EE2
:10590000E66EC50EE66E000EAAD8FD0EDB5006E16F
:105910009C0EE66EC60EE66E000E05D0980EE66E84
:10592000C60EE66E000E9BD80B0EE66EC60EE66E39
:10593000000E95D8FD0EDB5006E12E0EE66EC60E6B
:10594000E66E000E8CD8A0D9FE0EDBCFE6FFDCECB5
:1059500009F0D9D8FE0EDBCFE6FFC3EC08F0E55224
:10596000010E01D0000E006E080EE15C02E2E16A59
:10597000E552E16E00507ED091D9EECF04F0EECF2B
:1059800005F0EECF06F0EFCF07F004C0E6FF05C04C
:10599000E6FF06C0E6FF07C0E6FF81EC65F0E552D2
:1059A000E7CF07F0E552E7CF06F0E552E7CF05F085
:1059B000E552E7CF04F0000104503A5C006E055058
:1059C0003B58016E06503C58026E07503D58036E1E
:1059D000D8801200FE0EDB5087D1E66E92D99EEF82
:1059E0002EF0036E046A056A00500324F36E015022
:1059F0000420F46E02500520F86EF4CFF7FFF3CFC9
:105A0000F6FF0800F550120008010851E96EEA6A35
:105A1000D890E936EA360C0EE926080EEA22EECFD7
:105A2000E6FFEFCFE6FF1200DB50EA6A6B0FE96E8C
:105A3000010EEA22120081EC65F03AC000F03BC092
:105A400001F03CC002F03DC003F028D93AC0EEFF9F
:105A500001C0EEFF02C0EEFF03C0EEFF1200E66ED3
:105A600013D985EC5FF049EF2EF0D9CFE6FFE1CFF7
:105A7000D9FF1200E552E7CFD9FF1200E66E04D934
:105A80005DD9D950130FE96EDACFEAFFEE50ED1071
:105A9000120001016151510D42D9600EE926050E37
:105AA000EA221200E66E090E36D90A0EDBCFEAFFB3
:105AB0001200EA2239D9D950130FE96EDACFEAFF82
:105AC000020EEE26000EED220A0EDB2A1200035013
:105AD0000624006E04500720016E05500820026E57
:105AE000F5D8E66E12009F0E006EC60E016E000E17
